:0200000480007A
:10000000B7000080678080007350403073504034E8
:1000100081400141814101428142014381430144C8
:100020008144014581450146814601478147014898
:10003000814801498149014A814A014B814B014C68
:10004000814C014D814D014E814E014F814F9731C1
:1000500000009381A125732640F1B702000093822E
:10006000020063F4C2006F20605417810000130186
:1000700061F9B712000093820280B3025602330185
:100080005140330401006F004000411106C6972023
:100090000000E78060202DC197200000E780A01FAE
:1000A000373500801305C5B5B7350080938585B514
:1000B00063F7A50023A005009105E3EDA5FE373504
:1000C0000080930585B537350080130585AA6375D3
:1000D000B502130645006363B600B2851346F5FF0B
:1000E000B295910513F6C5FFB7350080938585AAB3
:1000F00097200000E780E01E97200000E780604A1C
:1001000097100000E780804000000000397106C0B1
:1001100016C21AC41EC672C876CA7ACC7ECE2AD03F
:100120002ED232D436D63AD83EDA42DC46DE330519
:100130000100EF00A002824092422243B243424EAD
:10014000D24E624FF24F025592552256B256425746
:10015000D2576258F258216173002030411106C60F
:1001600022C42A8497200000E7804017634A0500D4
:1001700022852244B2404101172300006700631129
:10018000B7050080FD156D8DB145637EB500B735AF
:100190000080938585A70A052E951C4189C72244B6
:1001A000B240410182872244B2404101172300003E
:1001B0006700430E144150412E85B6851723000079
:1001C00067002398372500809306955E09462E85A3
:1001D000B685172300006700C39682808280411194
:1001E0001305000802C663F4A500054649A813D507
:1001F000B50019ED13D5650093F5F503136505FCFE
:100200002306A10093E50508A306B1000946BDA099
:1002100013D505011DE513D5C50013D6650093F56B
:10022000F503136505FE2306A1001376F603136696
:100230000608A306C10093E505082307B1000D4693
:1002400035A813D5250113D6C50093D6650093F5BF
:10025000F503136505FF2306A1001376F603136665
:100260000608A306C10013F6F60313660608230763
:10027000C10093E50508A307B1001146AA856800EF
:100280002A96B70602F0D84241831377F70F65DF4D
:1002900093F5F50F05058CC26305C5008345050080
:1002A000DDB7014541018280797106D60841D04908
:1002B00094492AC632D236D0C8459045D4418C41A3
:1002C0002ACE32CC36CA2EC8372500809305C55EAB
:1002D0006800100897200000E78080A9B2504561AF
:1002E000828005C23385C500370602F083C605004B
:1002F000584241831377F70F65DF850514C2E397F2
:10030000A5FE014582805D7186C6A2C4A6C2CAC090
:100310004EDE52DCAE8483A585093684B2892A89F3
:1003200032C036C22EC6B9C168002AC8371500804F
:100330001305C5792ACA26CE372500801305056422
:100340002AD0094A52D202D408082AD805452ADA06
:10035000372500809305C55E6808101097200000BF
:10036000E78000A101C5230049019DA023AA8408BC
:10037000454523AC84086375A4061385C409CE855E
:10038000228697200000E780C0F50A852AC8370535
:1003900000801305451B2ACA26CE37250080130589
:1003A00045652AD005452AD202D40C082ED82ADA6F
:1003B000372500809305C55E68081010972000005F
:1003C000E780009B19C1094511A019452300A90028
:1003D000625AF259064996442644B64061618280C9
:1003E000C145228597200000E78080B10000797127
:1003F00006D6372500801305C5662AC0370500805C
:100400001305451B2AC2372600801306C66832C46E
:100410002AC6884DCC4D373600801306068A32C86E
:10042000094632CA02CC8A8636D032D210089720CA
:100430000000E780E093B25045618280117186DF51
:10044000A2DDA6DBCAD9CED7D2D5D6D3DAD1DECFBC
:10045000E2CDE6CBEAC9EEC797200000E78080E650
:10046000AA8A214597200000E78080E63735008082
:10047000930585AA03C5C50A094601496303C5005A
:100480002E896319C50213F58A0011C521459720ED
:100490000000E78080E3BE4D4E4DDE4C6E4CFE4BBF
:1004A0000E5B9E5A2E5ABE594E59DE546E54FE5063
:1004B00011618280370B02F0ED448549130AB005C3
:1004C00037350080930C85AAB14DA14825483705E2
:1004D00000801305451BAACC372500801305456510
:1004E0002AD4372500801305C55EAACA37250080A7
:1004F00013050579AAC63735008013050582AAC4FD
:100500003735008013050583AAC2372500801305FF
:10051000055BAACE1D651305F5E62ADE373500809A
:10052000130595802ADC37656C70130585562ADA29
:10053000372500801305857F2AD8373500801305BD
:1005400015802AD637250080130555762ACA372507
:100550000080130535762AD23725008013054577AC
:100560002AD037250080130585792ACE4165130FDF
:10057000F5FF1D4CC54B9382CC09130D010B1303E2
:100580004004B54337350080130585A7AAC8372531
:100590000080130545692ACC614E930EF00793073E
:1005A0002004930F10049300300419A0A306390B04
:1005B00003250B010D89E31805EC03254B00618130
:1005C000E30305EC03240B009375F40FE38095FE21
:1005D000639845010345D90A01C523863C0BC9BF71
:1005E00003C5CC0A21C1A306090A23860C0A63C3EA
:1005F000B7046380F50DE39DF5FA03A58C0983A587
:100600004C090346F90A2D8D934516004D8D630E56
:10061000052A03254B0041811375F50F7DD9232051
:100620008B0179B70345D90A35C1A306090A238688
:100630000C0ABDBF6384150AE39C65F603A58C090B
:100640000DCD7D1523ACAC0803254B0041811375FE
:10065000F50F7DD923209B0003254B0041811375A5
:10066000F50F7DD923204B0103254B0041811375E4
:10067000F50F7DD923206B0025BF03254B00418159
:100680001375F50F7DD923208B011DB763C3BD0AF8
:100690006385150B639A05350345E90AE317053EA3
:1006A00003254B0041811375F50F7DD923208B0164
:1006B00001B703A58C0983A54C090346F90A2D8DC2
:1006C000934516004D8D6306052403254B0041819B
:1006D0001375F50F7DD923208B01D9BD03A58C0996
:1006E00083A54C09637EB502050523ACAC08032540
:1006F0004B0041811375F50F7DD923209B00032505
:100700004B0041811375F50F7DD923204B01032543
:100710004B0041811375F50F7DD923201B0049BD86
:1007200003254B0041811375F50F7DD923208B01E3
:1007300041B5638575226399D52B83A58C09638D9B
:10074000051603A54C099386F5FF63F3A52CE37CFE
:1007500075513306B5404145118DE369D554168D69
:100760007A841305C909AA95369597200000E78079
:1007700080C203A58C0983A54C097D1523ACAC0868
:100780001385F5FF23AAAC0803254B00418113759F
:10079000F50F7DD923209B00C145130340041306A8
:1007A000300703254B0041811375F50F7DD92320B8
:1007B0004B01A1482548228FEA829306B004130713
:1007C0005007B543614E930EF00793072004930F33
:1007D00010049300300403254B0041811375F50F7D
:1007E0007DD923206B00130D010B03254B004181A4
:1007F0001375F50F7DD923209B0003254B00418104
:100800001375F50F7DD923204B0103254B00418142
:100810001375F50F7DD92320CB0003254B004181B3
:100820001375F50F7DD923209B0003254B004181D3
:100830001375F50F7DD923204B0103254B00418112
:100840001375F50F7DD92320DB0003A58C0903A6C2
:100850004C09E360A644E3E7C5426306C502B3055D
:10086000C9009385C5094A951305C50903460500C6
:1008700083264B00C18293F6F60FFDDA050523208F
:10088000CB00E315B5FE03254B0041811375F50F31
:100890007DD923209B0003254B0041811375F50F63
:1008A0007DD923204B0103254B0041811375F50FA2
:1008B0007DD92320EB00EDB903254B004181137551
:1008C000F50F7DD923208B01E5B103A60C09630048
:1008D000061C03A58C08630C051A83D5CC087D166D
:1008E00023A8CC08630606168356E90821A07D16C6
:1008F0006300061633F7E501637BA7189145E3080B
:10090000D7FEB305C703E6959385850283D56501B8
:10091000F9BF03A58C086301052483A50C09638D29
:10092000A52203D6CC089386150023A8DC0863878C
:1009300005188356E90821A0FD1563810518337752
:10094000E601637BA7201146E308D7FE3306C70301
:1009500066961306860203566601F9BFFAC003A61F
:100960004C09E3717633081916C896859710000074
:10097000E780A06A4A55E31805B06A54DA5D630659
:10098000041E03D5CC0883A98C08035AE9088647BE
:1009900061486372354156C6AA8B2AC42A8C29A0A5
:1009A000A68B268C63F6343533850B03B38AAC00F3
:1009B00013858A02337DFC00914463044D01835406
:1009C00065010C41E39E85FC1105EE85228697208A
:1009D0000000E78000BB6148864779F12247631732
:1009E000A7353A8DB24A65A613B50502138615F8E8
:1009F00013361600518D4DC50945E39BA5BA032555
:100A00004B0041811375F50F7DD923208B014DB625
:100A100023ACDC087D1523AAAC0803254B004181DB
:100A20001375F50F7DD923201B0103254B00418150
:100A30001375F50F7DD9130500022320AB000325A4
:100A40004B0041811375F50F7DD923201B018DB615
:100A500063FFA5023385C50366959305850282C1B0
:100A6000884102DF02DD02DB02D94146E36AA624A7
:100A700041C501469105838605006A962302D6008A
:100A80004A56850505067D1532D975F5B5A00325AD
:100A90004B0041811375F50F7DD923208B0109BED1
:100AA00003A58C0941466319C50C03254B00418100
:100AB0001375F50F7DD923208B01DDBC637EA6085D
:100AC0003305C60366959305850282C1884102DF1E
:100AD00002DD02DB02D94146E364A61E11CD0146C8
:100AE0009105838605006A962302D6004A5685053D
:100AF00005067D1532D975F5168D7A84CA5636CD20
:100B00005A55EA557A560E472ACF2ED132D33AD5C6
:100B1000BAC132DF2EDD2ADB36D98818CA855019D2
:100B200097F0FFFFE780607E03450107A148254855
:100B3000228FEA82130D010B13034004B54399453C
:100B4000614E930EF00793072004930F1004930057
:100B50003004E30FB5A405BA03254B00418113759A
:100B6000F50F7DD923208B01A1B423A80C0823AA5B
:100B70000C0823AC0C08B1A603A64C09637EC5166D
:100B800003254B0041811375F50F7DD92320BB0050
:100B900003A58C0903A64C09E36DA60EC145E3E34A
:100BA000C50E93061500098EC145918DE3E0D51061
:100BB000168D7A8C1307C909B305A7003305D70032
:100BC00097100000E780207D03A58C09BD45E3EC6C
:100BD000A5084A95230E850803A58C0983A54C0911
:100BE000050523ACAC081385150023AAAC08130631
:100BF00030079306B00403254B0041811375F50FB0
:100C00007DD923209B00A1482548628FEA82C145F7
:100C10001303400413075007B543614E930EF007CA
:100C200093072004930F10049300300403254B0016
:100C300041811375F50F7DD923204B011D4C130DF8
:100C4000010B03254B0041811375F50F7DD923203E
:100C5000CB0003254B0041811375F50F7DD923206F
:100C60009B0003254B0041811375F50F7DD923208F
:100C70004B0103254B0041811375F50F7DD92320CE
:100C8000DB0003A58C0903A64C09E364A60063EB13
:100C9000C57E6306C502B305C9009385C5094A959B
:100CA0001305C5090346050083264B00C18293F650
:100CB000F60FFDDA05052320CB00E315B5FE03256D
:100CC0004B0041811375F50F7DD923209B0003252F
:100CD0004B0041811375F50F7DD923204B0103256E
:100CE0004B0041811375F50F7DD92320EB00C9B06E
:100CF000B24A1D4CC54B45A041466376C5764A9520
:100D0000230E850803A58C0903A64C09050523AC11
:100D1000AC081305160023AAAC0803254B0041813B
:100D20001375F50F7DD92320BB0059B063F33B75D4
:100D300003D5CA036372357533464D0183D5EA0383
:100D400013361600B3060503E696239FB60201C6C6
:100D50002317A90809A863F03573B3850503E69541
:100D6000239EA502528585456396B90023178909FC
:100D7000628511A89385EA032390E500B305070374
:100D8000E695239E8503B24A23968C092A8A1D4C38
:100D9000C54B63623D0F82C102DF02DD02DB02D977
:100DA0004145636285EE814522856E86181983066A
:100DB0000600BA952382D500CA55050685057D151E
:100DC0002ED975F50E452AD57A55EA555A56CA5682
:100DD0002AD32ED132CF36CD91456391B9063375E2
:100DE000FA00637CB5663305050366958315C50374
:100DF0002317B908AA550CDD9A550A56FA466A47D0
:100E00004CD910D954D518D5232E050283A58C08AA
:100E10000545638EA5043376FA006376B66603D57E
:100E2000CC08330606036696231FA6026378B562D4
:100E3000330505036695231E450325A863F3B96AA8
:100E40002A55B3850903E69588DD1A550A56FA46F0
:100E50006A47C8D990D9D4D598D523AE05029385D1
:100E6000190023A4BC084E8A0545E396A5FA23176A
:100E7000490923964C0923A80C0823AA0C0823AC83
:100E80000C08130D010B15CC01459306000221A09F
:100E90000505637F8502B385AD0003C605001376A3
:100EA000F603E317D6FE6374855A03C60500E31103
:100EB000D6FE1346F5FFB3098600138A15002A846F
:100EC00029A8814982D682D482D282D0464A21A8DA
:100ED000814937350080130A85A782D682D482D211
:100EE00082D06379745F8810EE85228697100000A7
:100EF000E780203F08198C10228697100000E780B9
:100F0000C0114A55631105D85A54EA5482DE82DC76
:100F100082DA82D863F579598818D2854E8697107F
:100F20000000E780003C08198C184E8697100000DE
:100F3000E780A00E4A55130AB005B14D631505D4DC
:100F400019456367952613952400F6452E950841AB
:100F5000028503254B0041811375F50F7DD9354579
:100F60002320AB008549A1482548064FC242130300
:100F700040049306200C1307B00B614E930EF0074C
:100F800093072004930F10049300300403254B00B3
:100F900041811375F50F7DD9F9A0034514008345F0
:100FA000040022054D8DF2556314B520B70501F0FC
:100FB000C8416D99910588C1854903254B00418140
:100FC0001375F50F7DD935452320AB00A148254881
:100FD000064FC242130340049306200C1307B00BC4
:100FE000614E930EF00793072004930F10049300B3
:100FF000300403254B0041811375F50F7DD9A5A061
:101000000D462285E25597100000E7808057631156
:10101000051AB70501F0C84113654500910588C15F
:1010200003254B0041811375F50F7DD935452320EC
:10103000AB008549A1482548064FC242130340042E
:101040009306200C1307B00B614E930EF007930725
:101050002004930F10049300300403254B004181BA
:101060001375F50F7DD929452320AB0071AA0345DF
:1010700014008345040003463400834624002205FF
:101080004D8D93158600D58DC2054D8DD2556311BA
:10109000B51262458549A1482548064FC24213034F
:1010A00040049306200C1307B00BB7240080614E58
:1010B000930EF00793072004930F1004930030045D
:1010C0008345050003264B0041821376F60F7DDA37
:1010D0000505138644691306F60C2320BB00E311B3
:1010E000C5FE1DA215462285C25597100000E78057
:1010F00040495DED23AC0C0823AA0C088549032563
:101100004B0041811375F50F7DD9ED452320BB00C0
:10111000A1482548064FC242130340049306200C01
:101120001307B00B614E930EF00793072004930F43
:1011300010049300300403254B0041811375F50F13
:101140007DD923204B0103254B0041811375F50FF9
:101150007DD9130580042320AB0003254B0041817A
:101160001375F50F7DD92320BB0003254B0041816A
:101170001375F50F7DD923204B0103254B004181C9
:101180001375F50F7DD9130520032320AB0003252C
:101190004B0041811375F50F7DD91305A004E9B506
:1011A00019462285B25597100000E780803D59C945
:1011B00036452ACD66452ACF4AC526452AD98945CE
:1011C0002EDB16452ADD2EDF2809AAC18549CEC3AC
:1011D00028011019D64597100000E78060B9A14892
:1011E0002548064FC242130340049306200C130700
:1011F000B00B614E930EF00793072004930F100479
:1012000093003004631105A803254B004181137539
:10121000F50F7DD92320DB00ED44B54303254B00BA
:1012200041811375F50F7DD92320EB0003254B0079
:1012300041811375F50F7DD9130500022320AB0002
:101240006FF00FB7370501F0484111899255854974
:1012500011C1D245133515000D463305A6402EC5E4
:101260002AC736452ACD66452ACF2C012ED12AD34E
:101270004ACB02552AD932DB72452ADD32DF2809F2
:10128000AAC10945AAC34809A9B745459D4B03A66C
:101290008C096379A61E7A8C0819168D968597108D
:1012A0000000E78080D74A55631F059CEA59638098
:1012B000090C03A44C005A5A636C3401832D0900B5
:1012C0005285EE854E8697100000E780802B2DC951
:1012D00003A4CC00636C340183AD8C005285EE8591
:1012E0004E8697100000E780C02939C903A44C013D
:1012F000636C340183AD0C015285EE854E869710E8
:101300000000E78000280DCD03A4CC01636C3401FC
:1013100083AD8C015285EE854E8697100000E780E4
:10132000402619CD03A44C026363340583AD0C023F
:101330005285EE854E8697100000E780802405E9EF
:1013400063FB890033853D01030505009305F0FB30
:1013500063C5A5004DA26310341B3305344182C11F
:1013600002DF02DD02DB02D9C14563FBA5020325D2
:101370004B0041811375F50F7DD923207B018549F1
:10138000130AB005B14DC54BA1482548628F1D4CCD
:10139000EA82130D010B13034004B5436FF0CF9F96
:1013A000181919CD814533863D0183060600BA958B
:1013B0002382D500CA55050685057D152ED975F5FC
:1013C0000E452AC1FA556A56DA564A54AEDEB2DCE8
:1013D000B6DAA2D82AD503A58C092ED332D136CFBE
:1013E0003306850022CD130AB005B14D6363A60A0A
:1013F0008549C14563E8C5084A951305C509930B9E
:10140000C109DE85228697100000E78080ED03A5E4
:101410008C09229523ACAC0823AAAC08DED0A2D25A
:1014200088102AC566452AC74ACB22552AD94EDBE1
:1014300002DD2801AAC1CEC348091019D64597106C
:101440000000E780E092C54B21D16FF0CF83A285E9
:1014500097100000E780C0AA000091459710000097
:10146000E78000AA0000C14597100000E78040A96E
:1014700000005E8511A02E85CE8597100000E780C4
:1014800020A80000C145328597100000E78040A7E2
:101490000000B28597100000E78080A60000C145DB
:1014A0004E8597100000E780A0A50000372500803A
:1014B00013054560D54597100000E780808A00003D
:1014C000372500809305C561881097100000E780DC
:1014D00000A40000C145228597100000E78040A2CB
:1014E0000000372500809305C56208199710000099
:1014F000E780E0A100006E85A2850146CE869710A8
:101500000000E780A0A10000011106CE22CC26CA6F
:101510004AC84EC697100000E780C0DA2A842145E9
:1015200097100000E780C0DAB735008003C5B5B575
:1015300001C9937584001334150089ED1DE005ACD5
:101540009385B5B505462380C50093758400133493
:101550001500EDD5214597100000E78000D76308FE
:10156000042097100000E780E0D52A8421459710D9
:101570000000E780E0D5B735008003C595B501C907
:10158000937584001334150089ED1DE0CDA2938579
:1015900095B505462380C500937584001334150066
:1015A000EDD5214597100000E78020D26301041C8F
:1015B000370501F00C4593E515000CC50C4593E586
:1015C00025000CC50C4593E545000CC54C4193E541
:1015D00015004CC14C4193E525004CC14C4193E5AD
:1015E00045004CC197100000E780C0CD2A842145FA
:1015F00097100000E780C0CDB735008003C5A5B5C2
:10160000630505149375840013341500639A05145B
:10161000630F0414B70900F003A50900B75504E9E6
:101620009385552D3335B5024D817D15B70502F0F3
:1016300088C5C8454176130606CF718D13657500C0
:10164000C8C5C84113652500C8C197100000E780D0
:1016500060C72A89214597100000E78060C73725B9
:1016600000801305857FB735008023A4A5AA1384C5
:1016700085AA154548C0372500801305D57F08C4C5
:10168000114548C4373500801305158008C8194531
:1016900048C8373500801305758008CC094548CC0B
:1016A000373500801305958008D00D4548D01305C7
:1016B000840813066002814597100000E78060E609
:1016C000130510102317A40A214597100000E78086
:1016D000C0BF05651305058097100000E780A0BF17
:1016E0001375890011C5214597100000E780E0BD02
:1016F000370501F0B70503F037B6E60E13060628E6
:10170000B786008085061387C5005C414041858B04
:101710007998C18F93C717005CC1DC45F99BDCC584
:1017200083A74900A5C3B357F60233B4D7023D805F
:1017300093041400B3D79702C0C19CC5DC4593E75E
:1017400017001CC39C49FDDFC9B79385A5B50546A5
:101750002380C5009375840013341500E38A05EADD
:10176000214597100000E78040B6E31504EA3735BD
:101770000080130505879305B00297000000E780FD
:10178000405E0000372500801305055DE5459700A4
:101790000000E780005D0000084101A00841170338
:1017A000000067006301411106C697100000E78042
:1017B000E0AD0000797106D622D42E88135645007C
:1017C00093061027930570026372D6021306300643
:1017D0006346A60A29466358C50EFD151306110077
:1017E0002E96130505032300A60001A28145371696
:1017F000B7D11303967579769303068F0566130E9A
:10180000B6479308C0F937360080130F068B930252
:101810001100B7E6F505938EF60F2A87333565027A
:101820003581B3077502BA9793960701C982B386CB
:10183000C603C58213961600B3861603BE96C60667
:10184000C1827A96B387B200834F06000306160062
:10185000FA960384160083C606002382C702A3817A
:10186000F70323838702A382D702F115E3E7EEFA99
:101870009385750213063006E35EA6F41316050180
:10188000498285669386B6473306D602458293061B
:10189000C0F9B306D602369546054181F915B7362B
:1018A00000809386068B3695830615000345050058
:1018B000130711002E97A300D7002300A70032853D
:1018C0002946E34CC5F00605F915373600801306A6
:1018D000068B32950306150003450500930611009B
:1018E000AE96A380C6002380A60013051100B306A0
:1018F000B500130570023307B540373500809305F6
:1019000085A74285014697000000E7800001225428
:10191000B25045618280397106DE22DC26DA4AD86F
:101920004ED652D456D25AD05ECE62CC66CA6AC85F
:101930006EC6AA840841BA893689328AAE8B9375FD
:101940001500B70A110099C1930AB0021376450039
:101950003384350109E6814B8C4485E591A88145A6
:10196000630E0A001306F0FBD2865E87830707002A
:101970000507B327F600FD16BE95EDFA2E948C44AC
:1019800085C903ADC4006375A403218941E183C502
:1019900004020D4605456383C5002E859375350009
:1019A00033058D40CDC90546639AC50A814C65A8AB
:1019B0002685D6855E86D28697000000E780A01334
:1019C000054B0DC15A85B24D424DD24C624CF24B83
:1019D000025B925A225AB2594259D2546254F2507E
:1019E00021618280CC4C884CDC45CA854E86B24D44
:1019F000424DD24C624CF24B025B925A225AB2597F
:101A00004259D2546254F2502161828703AC44009F
:101A10001305000383CC0402C8C0054B2380640374
:101A20002685D6855E86D28697000000E780A00CCA
:101A300051F903AA840183AAC40133058D4013041C
:101A400015007D1449C403A60A01930500035285BD
:101A5000029665D985BFAA8C014531A09305150072
:101A6000058193DC150003AC840103ADC40183AD93
:101A70004400130415007D1409C803260D01628576
:101A8000EE8502966DD9054B35BF37051100054B24
:101A9000E38AADF22685D6855E86D2869700000061
:101AA000E780600505F18326CD006285CA854E86F4
:101AB000829609F90144638A8C0203260D0105040C
:101AC0006285EE85029665D91305F4FF05A083A60D
:101AD000CA005285CA854E868296E31505EE014BF3
:101AE00023A2840123809403F1BD6685333B9501D5
:101AF000D1BD411106C622C426C24AC03707110013
:101B00003689B2842A846389E500504C084C104A17
:101B10000296AA85054591ED81CC4C4C084CDC45DC
:101B2000A6854A86024992442244B24041018287F6
:101B30000145024992442244B240410182807971B8
:101B400006D622D426D24AD04ECE52CC56CA5AC835
:101B50005EC618491445B2892E899305F7FF0546DC
:101B600093B515006394C60081E521A26385051431
:101B700058499385F6FF93B81500B306390101461D
:101B800035CB1303000E9302000F370811004A846F
:101B900001A893051400018E7D172E962E8421CF67
:101BA0006307D40C83050400E3D505FE93F5F50F18
:101BB00063EC650263ED55028344140083472400FF
:101BC00093F4F40393F7F70383433400F605AD81F0
:101BD000B2049A07C58F93F4F303C58FDD8D638834
:101BE00005099305440045BF930524006DB793058F
:101BF000340055B7CA85638CD50683C60500130724
:101C0000000F63E9E60203C7150083C725001377B9
:101C1000F70393F7F70383C53500F606AD82320765
:101C20009A075D8F93F5F503D98DD58DB706110011
:101C3000638FD50205C263743603B305C90083857B
:101C40000500930600FC63CAD50EB2852E86CA85B0
:101C500099CD21A881452E86CA8591C939A0CE8506
:101C6000631D360D2E86CA8599C12E89B28963847B
:101C700008044C450146638E09009306F0FB4E872D
:101C8000CA87838407008507B3A496007D1726962C
:101C90006DFB6372B602834605028D47014763837D
:101CA000F600368793763700918D95C60546639783
:101CB000C602814A0DA84C4D084DDC45CA854E86AA
:101CC000B24B424BD24A624AF249025992542254D0
:101CD000B25045618287AE8A814531A013861500D6
:101CE0008581935A1600032B8501832BC501404142
:101CF00093841500FD1489C803A60B015A85A2859B
:101D000002966DD9054A81A037051100054A630C7A
:101D1000A40283A6CB005A85CA854E86829605E525
:101D20008144638F9A0003A60B0185045A85A2851E
:101D3000029665D91385F4FF29A081458DD935B761
:101D40005685333A55015285B24B424BD24A624ACC
:101D5000F249025992542254B25045618280411195
:101D600006C697000000E78040A400005D7186C6AB
:101D7000A2C4A6C2CAC04EDE52DC56DA5AD8B28914
:101D800002C41306000232C60D462304C10203A694
:101D9000890002C802CC2AD02ED271C203A5C90084
:101DA0006305051083A50900131A550013050AFEE3
:101DB0001581130915001384450093040601854A13
:101DC00037150080130B8579104009CA92560255C9
:101DD0008325C4FFD44682966315051003A544FFEE
:101DE0002AC60385C4002304A10283A584FF03A59A
:101DF00009012EC4D4408C4489CE0146639C56010F
:101E00008E05AA95D04163046601014621A08C414C
:101E10008C41054632C82ECA83A6C4FF8C4089CEA9
:101E20000146639C56018E05AA95D0416304660164
:101E3000014621A08C418C41054632CC2ECE83A593
:101E400004FF8E052E95504108412C00029651E961
:101E50002104011A93840402E3180AF681A803A559
:101E6000490129CD83A5090103A609000E056115C5
:101E70000D811309150013044600938445004A8A16
:101E8000104001CA925602558325C4FFD44682965B
:101E900029E9904003A5C4FF2C00029639E17D1A80
:101EA0002104A104E31E0AFC11A0014903A5490075
:101EB000636BA9000146636FA90035A0014903A522
:101EC0004900E379A9FE83A50900131639002E966F
:101ED000637BA900925602550C425042D44682962A
:101EE00019C1054511A00145425BD25A625AF25907
:101EF000064996442644B64061618280411106C677
:101F000097000000E780608A0000411106C6970034
:101F10000000E78080890000411106C613071010F9
:101F200063E8E50213070010130800FCB307E5009F
:101F30008387070063D507017D176DFB11A863F93F
:101F4000E5000146BA8697000000E78020FD00000A
:101F500033B7C500B3B7D5005D8F19E363F7C6008B
:101F600097000000E7806084000011CE637BB6001C
:101F70003307C50003070700930700FC6355F7000C
:101F800031A06395C500014736868DC2930600FCDB
:101F9000328729A06386E5067D1701CFE37CB7FE73
:101FA0003306E50003060600E348D6FE6316B700D5
:101FB00081A801476306B7043A9583050500E3D17C
:101FC00005FA93F5F50F13B6050E93B6050F558E6A
:101FD00041FA03461500834625001376F60393F66F
:101FE000F60303453500F605AD8132069A06558E97
:101FF0001375F503518D4D8DB7051100E312B5F63C
:1020000037350080130505879305B002970000005F
:10201000E78020D50000797122D626D44AD24ED04E
:1020200052CE56CC5ACA5EC862C666C46AC26EC078
:10203000930696FF01476363D6003687630D061E3D
:10204000814693873500F19B3388B740930718008A
:1020500093BC1700B737008093888797914213038A
:10206000000F93030003130EF0FB930E400F7D5FF0
:10207000930FF0080D4C130B000E1309000A93097F
:10208000D00E314A930AF00B894BB7878080138DAD
:10209000070831A013841600A286637EC418B38794
:1020A000D50083C707001394870161846349040244
:1020B000E3920CFEB307D8408D8BE9FF63F1E60A8B
:1020C000B387D5008043DC43C18FB3F7A701639C7E
:1020D000071013848600A146E364E4FE51A0B38494
:1020E000170183C404006381540263848405639BE5
:1020F00074159387160063F4C7143384F500030442
:10210000040063578E123DAA9384160063F9C4122B
:10211000AE9483C4040063886704639DD7059397D6
:102120008401E187B327FF0033B49F00C18FBDC393
:1021300011AA9384160063F4C410AE9483C40400FF
:10214000638F6707939D84016390370993D78D410F
:1021500093A7070013B4040AE18FE9E3E5A03684EE
:102160006366C40815BF9387040793F7F70F63E30B
:102170007702C9A89307F40093F7F70F93B73700D6
:1021800013948401618413240400E18F13B4040CBC
:10219000E18FCDCB9387260063F3C70AAE97838781
:1021A00007000544634BFE0C9387360063F9C708AC
:1021B000B384F50083840400635C9E06C9A093F792
:1021C000040E638D2705BDA89307F40193F7F70F5D
:1021D00063F8470393D78D41B327FF0033B49A00C8
:1021E000C18F8DCF85A03684E378C4EAB38685009D
:1021F00083860600E3C206EA0504E31986FE25A8E5
:102200009377E4FFC90793B7170013D48D411324C4
:102210000400E18F13B4040CE18F8DC7938726006F
:1022200063FFC7003384F50003040400634B8E048E
:102230001384170095B581464CC110C505A0814592
:10224000014419A08545054454C123048500230594
:102250000500A304B500A3050500854614C1824D01
:10226000124DA24C324CC24B524BE24A724A825936
:102270001259A2543254456182808945F1B78D4587
:10228000E1B705448945C9B70F00300301A001A09B
:1022900001A08280411106C697000000E78020025D
:1022A00011C597000000E7802001E5BF0545B24059
:1022B00041018280730050108280732540F182803A
:1022C00073250030828073200530828073300530A2
:1022D0008280732045308280732520348280BD4601
:1022E00063FBC606B306A04013F83600B30305012E
:1022F000630C0800AA87AE86038706002380E700E8
:1023000085078506E3EA77FEB382050133080641B7
:102310009378C8FF93F53200B3861301A9C113F671
:10232000C2FF0C42635710051397320013738701E5
:102330003307E040137E870111061842B3D56500CC
:10234000B317C701DD8D23A0B30091031106BA8531
:10235000E3E5D3FE39A8AA866343C00215A8635AF1
:1023600010019685904123A0C30091039105E3EBF2
:10237000D3FEB385120113763800635BC000369636
:10238000038705002380E60085068505E3EAC6FE8F
:102390008280B306B54063F8C608B306C5003D4762
:1023A000B382C500637DC70E13F83600B308004141
:1023B00093F3C6FF630F0800B307B600FD1703834E
:1023C00007001387F6FFA38F66FEFD17BA86E3E8C2
:1023D000E3FEC692B308064113F6C8FF13F73200B6
:1023E0003308C040B386C34069C393F5C2FF9C4124
:1023F000635A080C13963200137386013306C040EB
:10240000137E8601F1159841B397C70133566700D3
:10241000D18F1386C3FF23AEF3FEF115B283BA87C3
:10242000E3E3C6FE45A0BD4663FDC606B306A04075
:1024300013F83600B3030501630C0800AA87AE86C3
:10244000038706002380E70085078506E3EA77FE19
:10245000B3820501330806419378C8FF93F5320033
:10246000B3861301D9C113F6C2FF0C426359100998
:1024700013973200137387013307E040137E8701FF
:1024800011061842B3D56500B317C701DD8D23A02F
:10249000B30091031106BA85E3E5D3FE8DA0AA85AA
:1024A00005A8AA866343C00695A8635D0800C69583
:1024B000F11590411387C3FF23AEC3FEF115BA8314
:1024C000E3E9E6FE93F53800B1C9C292B385B640A0
:1024D0001386F2FF030706009387F6FFA38FE6FE3D
:1024E0007D16BE86E3E8F5FE15A8635A10019685B1
:1024F000904123A0C30091039105E3EBD3FEB38584
:10250000120113763800635BC0003696038705001E
:102510002380E60085068505E3EAC6FE8280BD4687
:1025200063F5C604B306A0408D8A3307D50099C66B
:10253000AA872380B7008507E3EDE7FE158E937722
:10254000C6FFB306F700635EF00013F8F50FB70798
:10255000010193871710B307F8021CC31107E36E3C
:10256000D7FE0D8A6346C00011A8AA866358C00032
:1025700036962380B6008506E3EDC6FE828019CA32
:102580008346050003C705006398E6007D168505B0
:1025900005057DF6014582803385E640828097E21D
:0E25A000FFFF9382E2B673905230828001A05A
:1025B000520F0080B01100809A0F00800010008040
:1025C0006E100080E4100080A01100800000000068
:1025D000617474656D707420746F206469766964C9
:1025E00065206279207A65726F282900DC010080FD
:1025F0000400000004000000E2020080DE01008010
:10260000A802008064657374206973206F7574205C
:102610006F6620626F756E6473000000DC010080DD
:102620000000000001000000C4010080DA01008009
:102630001800000004000000EE0300801B5B440053
:102640003C260080020000003E26008001000000C1
:102650001B5B4B005026008003000000436170614B
:10266000636974794572726F720000005C260080A5
:102670000D000000696E73756666696369656E7446
:1026800020636170616369747900000074260080C2
:10269000150000000D0A1B5B33336D4F72616E67CE
:1026A00065437261621B5B306D205368656C6C0D15
:1026B0000A0D0A55534147453A0D0A09636F6D6D7E
:1026C000616E64205B6172675D0D0A0D0A434F4DB8
:1026D0004D414E44533A0D0A096F6E2020202020B0
:1026E000202020537769746368206C6564206F6EC6
:1026F0000D0A096F6666202020202020205377696C
:10270000746368206C6564206F66660D0A097374D3
:1027100061747573202020205072696E74206C657E
:1027200064207374617475730D0A09636C6561725A
:102730002020202020436C656172207363726565E0
:102740006E0D0A0968656C702020202020205072D0
:10275000696E742074686973206D65737361676551
:102760000D0A0A4F6E4F66664C656420737461747F
:1027700075733A20782A00800000000068270080E6
:102780000C000000782A0080000000000D0A000004
:102790008C270080020000000000000020000000E4
:1027A0000000000002000000000000000200000025
:1027B00000000000030000000100000020000000F5
:1027C0000000000002000000000000000200000005
:1027D00000000000030000000000000020000000D6
:1027E00000000000020000000000000002000000E5
:1027F0000000000003000000636C65617268656C96
:10280000707374617475736F6E6F6666756E7375D1
:1028100070706F7274656420636F6D6D616E6400BB
:10282000782A0080000000000C28008013000000BF
:102830000000000020000000000000000200000076
:102840000000000002000000000000000300000083
:102850000000000020000000000000000200000056
:102860000000000002000000000000000300000063
:1028700063616C6C656420604F7074696F6E3A3A86
:10288000756E77726170282960206F6E20612060FC
:102890004E6F6E65602076616C75653A20000000B1
:1028A000782A0080000000009B28008002000000C1
:1028B00030303031303230333034303530363037FC
:1028C00030383039313031313132313331343135E2
:1028D00031363137313831393230323132323233C8
:1028E00032343235323632373238323933303331AE
:1028F0003332333333343335333633373338333994
:10290000343034313432343334343435343634378B
:102910003438343935303531353235333534353571
:102920003536353735383539363036313632363357
:10293000363436353636363736383639373037313D
:102940003732373337343735373637373738373923
:10295000383038313832383338343835383638371B
:102960003838383939303931393239333934393501
:10297000393639373938393901010101010101018D
:102980000101010101010101010101010101010137
:102990000101010101010101010101010101010127
:1029A0000101010101010101010101010101010117
:1029B0000101010101010101010101010101010107
:1029C00001010101010101010101010101010101F7
:1029D00001010101010101010101010101010101E7
:1029E00001010101010101010101010101010101D7
:1029F00001010101010101010000000000000000CF
:102A000000000000000000000000000000000000C6
:102A100000000000000000000000000000000000B6
:102A200000000000000000000000000000000000A6
:102A3000000000000000000000000202020202028A
:102A40000202020202020202020202020202020266
:102A5000020202020202020203030303030303034E
:102A6000030303030303030304040404040000003A
:102A700000000000000000009022008090220080F2
:102A800000000000902200809022008090220080B0
:102A900000000000902200809022008090220080A0
:082AA000000000003C0400806E
:102AA800000000000000000000000000000000001E
:102AB800000000000000000000000000000000000E
:102AC80000000000000000000000000000000000FE
:102AD80000000000000000000000000000000000EE
:102AE80000000000000000000000000000000000DE
:102AF80000000000000000000000000000000000CE
:102B080000000000000000000000000000000000BD
:102B180000000000000000000000000000000000AD
:102B2800000000000000000000000000000000009D
:102B3800000000000000000000000000000000008D
:102B4800000000000000000000000000020000007B
:040000058000000077
:00000001FF
