:0200000480007A
:10000000B7000080678080007350403073504034E8
:1000100081400141814101428142014381430144C8
:100020008144014581450146814601478147014898
:10003000814801498149014A814A014B814B014C68
:10004000814C014D814D014E814E014F814F9741B1
:1000500000009381A1AC732640F1B70200009382A7
:10006000020063F4C2006F20B03F1781000013014B
:1000700061F9B712000093820280B3025602330185
:100080005140330401006F004000411106C6973013
:100090000000E780A08B2DC197300000E780E08A48
:1000A000373500801305C53EB73500809385453E42
:1000B00063F7A50023A005009105E3EDA5FE373504
:1000C00000809305453E3735008013058531637503
:1000D000B502130645006363B600B2851346F5FF0B
:1000E000B295910513F6C5FFB7350080938585312C
:1000F00097300000E780208A97300000E780A0B5A5
:1001000097200000E78040A900000000397106C078
:1001100016C21AC41EC672C876CA7ACC7ECE2AD03F
:100120002ED232D436D63AD83EDA42DC46DE330519
:100130000100EF00A002824092422243B243424EAD
:10014000D24E624FF24F025592552256B256425746
:10015000D2576258F258216173002030411106C60F
:1001600022C42A8497300000E7808082634A050019
:1001700022852244B2404101172300006700A37C7E
:10018000B7050080FD156D8DB145637EB500B735AF
:1001900000809385852E0A052E951C4189C722442F
:1001A000B240410182872244B2404101172300003E
:1001B00067008379144150412E85B68517230000CE
:1001C0006700C3F937350080930605C809462E85B8
:1001D000B68517230000670063F88280828059711A
:1001E00086D6A2D4A6D2CAD0CECE3284AE892A89EF
:1001F000AEC4B2C637350080130745CFBAC88544B0
:10020000A6CA26CC0C1026D202D002D426D626D8D6
:1002100002DA32DC02DEA6C0280085474E86A286BE
:10022000014897000000E780E00322456311950232
:100230004245B2453386A9003305A4402320390145
:100240002322B9002324C9002326A90019A02320B2
:100250000900F649065996542654B65065618280C5
:10026000797122D626D44AD24ED052CE56CC5ACA12
:100270005EC862C603A34501B304F300FD1463F234
:10028000D41083A3050103AE850083AE450003AF00
:100290000500B38F7740B309C0417D49139A1E0012
:1002A00001A823AE1501B304F300FD1463FBD40CC5
:1002B000B29483C4040093F8F403138408FE6343E8
:1002C0000406B3D48E008588BDC483A8C501B3B429
:1002D000C80133649800F28211E0C682968A63E313
:1002E0005700BE8A330B66001684638D8A04B304FC
:1002F000830063F2D40CB304870083CB0400B304FF
:100300008B0003CC0400930414002684E38F8BFD40
:100310008148338469003303940023AA6500E30213
:1003200008F851B7B3549F003304194133148A00BD
:10033000C18C8588D9F881483E9323AA6500E302E1
:1003400008F695B7814A63130800C68AF28863FDF0
:100350001A03FD1863F8F806B382680063FBD2063F
:10036000B304170183C4040033045600034404009B
:10037000E38F84FC1E9323AA6500FE88E30308F242
:100380001DB70146D4C921A83306F300D0C96314B0
:10039000080023AE05002322650010C5054610C1E4
:1003A000324CC24B524BE24A724A82591259A25401
:1003B000325445618280B3856200368563ECD50096
:1003C0002E8509A84685BE8597200000E780E014A9
:1003D00000001685B68597200000E7800014000015
:1003E00041111305000802C663F4A500054649A89B
:1003F00013D5B50019ED13D5650093F5F503136515
:1004000005FC2306A10093E50508A306B1000946F3
:10041000BDA013D505011DE513D5C50013D6650094
:1004200093F5F503136505FE2306A1001376F60385
:1004300013660608A306C10093E505082307B1006B
:100440000D4635A813D5250113D6C50093D66500F2
:1004500093F5F503136505FF2306A1001376F60354
:1004600013660608A306C10013F6F6031366060812
:100470002307C10093E50508A307B1001146AA852B
:1004800068002A96B70602F0D84241831377F70F27
:1004900065DF93F5F50F05058CC26305C50083453F
:1004A0000500DDB7014541018280797106D608411A
:1004B000D04994492AC632D236D0C8459045D44155
:1004C0008C412ACE32CC36CA2EC8373500809305EF
:1004D00045C86800100897200000E78000EBB25084
:1004E0004561828005C23385C500370602F083C6A8
:1004F0000500584241831377F70F65DF850514C265
:10050000E397A5FE014582805D7186C6A2C4A6C29E
:10051000CAC04EDE52DCAE8483A5050B3684B28998
:100520002A8932C036C22EC6B9C168002AC837250A
:1005300000801305E5D72ACA26CE3735008013057B
:1005400085CD2AD0094A52D202D408082AD80545B6
:100550002ADA37350080930545C8680810109720BF
:100560000000E78080E201C5230049019DA023A689
:10057000840A454523A8840A6375A4061385440BA1
:10058000CE85228697200000E780E0400A852AC8B1
:10059000370500801305451B2ACA26CE3735008053
:1005A0001305C5CE2AD005452AD202D40C082ED870
:1005B0002ADA37350080930545C86808101097205F
:1005C0000000E78080DC19C1094511A0194523000E
:1005D000A900625AF259064996442644B640616120
:1005E0008280C145228597200000E78000F300004B
:1005F000797106D637350080130545D02AC03705F6
:1006000000801305451B2AC237360080130646D2E8
:1006100032C42AC6884DCC4D373600801306C6102A
:1006200032C8094632CA02CC8A8636D032D2100885
:1006300097200000E78060D5B250456182806971E3
:100640002326111223248112232291122320211305
:10065000232E3111232C4111232A511123286111FA
:100660002326711123248111232291112320A1110A
:10067000EEDF97200000E78020302A8B214597206D
:100680000000E7802030373500809305853103C5B1
:10069000450C0946814A6303C500AE8A6315C5044B
:1006A00013758B0011C5214597200000E780202D90
:1006B000FE5D032D0110832C4110032C8110832B30
:1006C000C110032B0111832A4111032A81118329AF
:1006D000C1110329011283244112032481128320B2
:1006E000C112556182803735008093098531370505
:1006F00000801305451BAADE373500801305C5CEE3
:10070000AAD637350080130545C8AADC37350080E6
:100710001305852EAAD8373500801305C5EBAADA54
:1007200037350080930DC50C37350080930B45ECB1
:1007300037350080130545C62AC1373500801305BB
:1007400045F1AAC837050010930CF5FF3735008036
:100750001305C5912AD637350080130C45F237357D
:1007600000801305C5F32AD437350080130505FB37
:100770002AD237350080130505FD2AD03735008091
:100780001305650BAAD437656C7013058556AAD27C
:10079000373500801305C509AAD037350080130509
:1007A000F50AAACA373500801305C5EA2ADA3705E3
:1007B00001F07D152ACE373500801305550AAACEE3
:1007C00037350080130505FE2AD83735008013051C
:1007D00025FEAAC60565130505F0AAC437350080B5
:1007E0001305258AAAC2373500801305C5FFAAC0A4
:1007F000373500801305C5012ADE41651308F5FF72
:10080000370A02F06D4D85449307B005B148A14207
:1008100025439D43138E490B1309010E930E40048B
:10082000130F0002B54F1D651305D526AACC373529
:1008300000801305C5D22ADCE1401307200493068B
:10084000100442C319A0A3829A0C03250A010D8942
:10085000E31805E403254A006181E30305E403246A
:100860000A009375F40FE380A5FF6398F50003C5B4
:100870005A0C01C52382990CC9BF03C5490C21C17B
:10088000A3820A0C2382090C6343B7046388D51E34
:10089000E39DE5FA03A5090B83A5C90A03C67A0CF3
:1008A0002D8D934516004D8D630F053E03254A009F
:1008B00041811375F50F7DD923207A0079B703C5DF
:1008C0005A0C25C5A3820A0C2382090CBDBF13054F
:1008D0003004638AA51CE39AD5F703A5090B0DCD57
:1008E0007D1523A8A90A03254A0041811375F50F38
:1008F0007DD92320AA0103254A0041811375F50FF4
:100900007DD92320FA0003254A0041811375F50F94
:100910007DD92320DA0115BF03254A0041811375D3
:10092000F50F7DD923207A000DB763CBB81C638FF8
:10093000551C639F654803C56A0C6308051203A62E
:10094000090B45456364A6006F10801C88117289ED
:10095000F28597200000E780E0CD0E55E31205D424
:1009600062CC668DDE84AE5B638F0B7603A4490098
:100970009E5C636C740103AC0A006685E2855E864A
:1009800097200000E780202B61C503A4C900636C99
:10099000740103AC89006685E2855E8697200000BD
:1009A000E780602955C503A44901636C740103AC59
:1009B00009016685E2855E8697200000E780A02712
:1009C00041C903A4C901636C740103AC8901668544
:1009D000E2855E8697200000E780E02535C903A404
:1009E0004902636C740103AC09026685E2855E8688
:1009F00097200000E780202421CD03A4C902636C66
:100A0000740103AC89026685E2855E86972000004A
:100A1000E780602215CD03A44903636C740103AC25
:100A200009036685E2855E8697200000E780A020A6
:100A300005C103A4C9036368746B03AC89036685AD
:100A4000E2855E8697200000E780E01E631D056852
:100A500063FF8B6633057C01030505009305F0FBFE
:100A6000C14763C9A5666F10801003254A00418104
:100A70001375F50F7DD923207A00C1BB03A5090B9F
:100A800083A5C90A03C67A0C2D8D934516004D8D9A
:100A9000630F052403254A0041811375F50F7DD9A5
:100AA00023207A005DB303A5090B83A5C90A6370EF
:100AB000B504050523A8A90A03254A004181137539
:100AC000F50F7DD92320AA0103254A004181137522
:100AD000F50F7DD92320FA0003254A0041811375C3
:100AE000F50F7DD9130530042320AA00B9BB0325D7
:100AF0004A0041811375F50F7DD923207A00B1B3E7
:100B0000638CF5231305F0076394A52C83A5090BCB
:100B10006382051803A5C90A9386F5FF63FEA52C19
:100B200045466364C5006F00D07C3306B54041453F
:100B3000118D6374D5006F100001728413854A0B08
:100B4000AA95369597200000E78020F003A5090BB1
:100B500083A5C90A7D1523A8A90A1385F5FF23A635
:100B6000A90A03254A0041811375F50F7DD9232079
:100B7000AA019307B005930E40049305300703259F
:100B80004A0041811375F50F7DD92320FA001A48D8
:100B90008544B148A14225439D43228E1306B004EB
:100BA00013075007130F0002B54FE14003254A0019
:100BB00041811375F50F7DD92320DA0103254A0001
:100BC00041811375F50F7DD92320AA0103254A0021
:100BD00041811375F50F7DD92320FA0003254A00C2
:100BE00041811375F50F7DD92320BA0003254A00F2
:100BF00041811375F50F7DD92320AA0103254A00F1
:100C000041811375F50F7DD92320FA0003254A0091
:100C100041811375F50F7DD92320CA0003A5090B67
:100C200003A6C90AE36DA66EC145E3E3C56E63067C
:100C3000C502B385CA009385450B56951305450B30
:100C40000346050083264A00C18293F6F60FFDDABB
:100C500005052320CA00E315B5FE03254A0041819E
:100C60001375F50F7DD92320AA0103254A00418180
:100C70001375F50F7DD92320FA0093061004032580
:100C80004A0041811375F50F7DD92320EA0013072F
:100C9000200465BE03254A0041811375F50F7DD9F7
:100CA00023207A005DB603A6890A6306061C03A505
:100CB000090A6302051C83D5490A7D1623A4C90AC3
:100CC000630C061683D66A0A21A07D1663060616F3
:100CD00033F705016371A71A9145E308D7FEB30501
:100CE0001702CE959385050483D56501F9BF03A549
:100CF000090A6306052483A5890A6382A52403D60D
:100D0000490A9386150023A4D90A638B051883D654
:100D10006A0A21A0FD156385051833770601637003
:100D2000A7221146E308D7FE330617024E96130694
:100D3000060403566601F9BF03A6C90A4545E379CF
:100D4000A65C881172C8F28597200000E780808E2B
:100D50000E55E317059462CC66C65EC46ECA2E5467
:100D60001E5C9A4705486147630F045C03D5490A36
:100D700083AB090A83DC6A0A6379754F5AC22A8BEE
:100D80002AC02A8D29A0268B268D63FF7433330554
:100D9000EB02B38DA90013850D043379FD00914456
:100DA00063049901835465010C41E39E85FC1105A0
:100DB000E285228697200000E780E0E7614705484A
:100DC0009A4771F18244639F24432689124B59A9A3
:100DD00013B50502138615F813361600518D5DC143
:100DE0000945E394A5A603254A0041811375F50F33
:100DF0007DD923207A0091BC23A8D90A7D1523A68A
:100E0000A90A03254A0041811375F50F7DD92320D6
:100E10005A009306100403254A0041811375F50F0B
:100E20007DD92320EA0103254A0041811375F50F7E
:100E30007DD923205A0011BC63FFA502338515021A
:100E40004E959305050482D9884182D782D582D3F5
:100E500082D14146E363A65051C101469105838684
:100E600005004A962302D6000E56850505067D1517
:100E7000B2D175F5A5A003254A0041811375F50F80
:100E80007DD9E1A003A5090B41466317C50C0325D5
:100E90004A0041811375F50F7DD923207A0075B280
:100EA000637FA608330516024E959305050482D983
:100EB000884182D782D582D382D14146E36FA6484A
:100EC00011CD01469105838605004A962302D6007E
:100ED0000E56850505067D15B2D175F572848E56C0
:100EE00036D11E55AE553E564E572AD32ED532D743
:100EF0003AD9BAD9B2D7AED5AAD3B6D12819D685A0
:100F0000D01197F0FFFFE78060600345810B1A481E
:100F100085449307B005B148A14225439D43228EE5
:100F2000930E4004130F0002B54F9945E14013079B
:100F3000200493061004E30AB5906FF06FF60325C2
:100F40004A0041811375F50F7DD923207A001307DC
:100F5000200493061004D5B803A6C90A6379C526F0
:100F600003254A0041811375F50F7DD92320BA006E
:100F700003A5090B03A6C90AE363A63AC145E3E941
:100F8000C53893061500098E918DE3EED53A728926
:100F900013874A0BB305A7003305D700972000003D
:100FA000E780A0AA03A5090BBD45E3E4A534569547
:100FB000230A850A03A5090B83A5C90A050523A8E9
:100FC000A90A1385150023A6A90A9307B00593055E
:100FD00030071306B00403254A0041811375F50F4D
:100FE0007DD92320AA011A488544B148A14225434E
:100FF0009D434A8E930E400413075007130F0002BF
:10100000B54FE14003254A0041811375F50F7DD9A5
:101010002320FA001309010E03254A0041811375AC
:10102000F50F7DD92320BA0003254A0041811375AD
:10103000F50F7DD92320AA0103254A0041811375AC
:10104000F50F7DD92320FA0003254A00418113754D
:10105000F50F7DD92320CA0003A5090B03A6C90AF1
:10106000E36FA62AC145E3E5C52A6306C502B38539
:10107000CA009385450B56951305450B034605009D
:1010800083264A00C18293F6F60FFDDA0505232078
:10109000CA00E315B5FE03254A0041811375F50F1B
:1010A0007DD92320AA0103254A0041811375F50F3C
:1010B0007DD92320FA009306100403254A004181BC
:1010C0001375F50F7DD9D1B6124B6D4D79AAC14775
:1010D000E31F74293305744182D982D782D582D324
:1010E00082D163FFA70003254A0041811375F50FE4
:1010F0007DD99D4323207A00A68BEA8C624C75A093
:10110000981119CD814533067C0183060600BA95F6
:101110002382D5008E55050685057D15AED175F562
:101120004E55AAC5BE552E569E560E54AEC3B2C1DC
:1011300036DF22DD2AD903A5090B2ED732D536D3C7
:101140003306850022D1624CE36BA61CE3E2C71C88
:10115000A68BEA8C56951305450B130D410AEA85BB
:10116000228697200000E780008303A5090B2295C3
:1011700023A8A90A23A6A90A6AC522C72801AAC9C1
:101180007655AACBD6CF3655AAD10545AAD382D556
:101190008C09AED9AADBE8099011E655971000003A
:1011A000E780A01E9D43631D05CE1A486D4D854402
:1011B0009307B005B148A14225434A8E1309010E99
:1011C000930E4004130F0002B54FE14049B341466E
:1011D000E371C5125695230A850A03A5090B03A6D8
:1011E000C90A050523A8A90A1305160023A6A90AFA
:1011F00003254A0041811375F50F7DD92320BA00DC
:101200006FF0AFE4E37D7B0F03D54D05E37C750FF5
:101210003346990183D56D0513361600B306E502F2
:10122000CE96239BB60401C62393AA0A09A8E3FA23
:10123000750DB385E502CE95239AA5046685639660
:101240000B012393AA0B6A8511A893856D05239042
:101250009500B385E402CE95239AA505124B2392FF
:10126000A90BAA8C6D4D6360790F82D982D782D584
:1012700082D382D14145636585C2814522856286DC
:10128000841183060600A6952382D5008E55050697
:1012900085057D15AED175F54E552AD93E55AE550D
:1012A0001E568E562AD72ED532D336D1914563900D
:1012B000BB0633F5FC00E378B5023305E5024E9535
:1012C000831545052393BA0ACA552CC9BA552A561F
:1012D0009A568A546CC530C574C124C1232A0504AA
:1012E00083A5090A638D050533F6FC00E373B60296
:1012F00003D5490A3306E6024E96231BA6046375FE
:10130000B57E3305E5024E95231A95051DA8E3F930
:10131000BB064A55B385EB02CE95A8C93A552A5665
:101320009A568A54E8C5B0C5F4C1A4C123AA0504DD
:1013300093851B0023A0B90ADE8CE39705FB23935A
:101340009A0B2392990B854D23A4090A23A6090A17
:1013500023A8090A8811E285228697F0FFFFE7801B
:1013600040E80E5511C51E54AE5CBE5B2A8C19A018
:10137000814BC65C02CB02C902C702C545456376F4
:10138000A47A2801E285228697100000E780A060F9
:1013900088112C01228697100000E780A0290E55A5
:1013A000631005B01E54AE5482C382C102DF02DD59
:1013B000454563F3AB782819E6855E8697100000F3
:1013C000E780605D88112C195E8697100000E78029
:1013D00060260E55631605ACB24C1945636F952A0D
:1013E0009E5B139524008A452E9508412E5C02854C
:1013F00003254A0041811375F50F7DD9B54F232090
:10140000FA01624C1A489307B005B148A14225433E
:101410009D43424E930E4004130F00029306200C8E
:101420001307B00BE14003254A0041811375F50F06
:101430007DD9F5A0034514008345040022054D8D98
:10144000E645630AB52E03451400834504002205D2
:101450004D8D1D669305D6766303B54C0345140088
:101460008345040022054D8D9305F6E66317B522EA
:1014700003A5890C0C4193E515000CC103254A0016
:1014800041811375F50F7DD9B54F2320FA01624CC8
:101490001A489307B005B148A14225439D43424EE7
:1014A000930E4004130F00029306200C1307B00B99
:1014B000E14003254A0041811375F50F7DD985A0D0
:1014C0000D462285A65597100000E780C07663166A
:1014D000051C03A5890C0C41F9990CC103254A0090
:1014E00041811375F50F7DD9B54F2320FA01624C68
:1014F0001A489307B005B148A14225439D43424E87
:10150000930E4004130F00029306200C1307B00B38
:10151000E14003254A0041811375F50F7DD9294526
:101520002320AA00A24B1309010EF1A203451400C7
:1015300083450400034634008346240022054D8D74
:1015400093158600D58DC2054D8D96556317B5143C
:101550006255A24B624C1A489307B005B148A142AC
:1015600025439D43424E1309010E930E4004130F71
:101570000002B54F9306200C1307B00B37340080E0
:10158000E1408345050003264A0041821376F60FA9
:101590007DDA05051306C4D21306A6162320BA0069
:1015A000E311C5FE89AA15462285865597100000CD
:1015B000E78060686304052015462285D6459710AC
:1015C0000000E780406771E9565785471309010E0F
:1015D000BD44B54F294463050C40014503C60B00CB
:1015E000930506FD63EE8500936506029386F5F983
:1015F000138695FAFD556363D600B28563E2B43E67
:1016000033769501631EA63C850B12057D1C2E9535
:10161000E3160CFC9355C5006394053C9355850077
:1016200003A6890C9376050F720551811842BD8976
:10163000D58D4D8DF245F98D42054D8D08C203259E
:101640004A0041811375F50F7DD92320FA01624CC0
:101650001A489307B005B148A14225439D43424E25
:10166000930E4004130F00029306200C1307B00BD7
:10167000E14003254A0041811375F50F7DD92945C5
:101680002320AA00A24B85A819462285F64597106B
:101690000000E780405A630C051C56552AD1765548
:1016A0002AD3D6C95245AAD10945AAD3A24BDED521
:1016B000AAD70811AAD9EEDB88099011E655971030
:1016C0000000E78080CC624C1A489307B005B1480F
:1016D000A14225439D43424E1309010E930E40043F
:1016E000130F0002B54F9306200C1307B00BE14017
:1016F00019C16FE0FFFA03254A0041811375F50F08
:101700007DD92320DA00D24D854403254A0041814A
:101710001375F50F7DD92320EA00930610040325E5
:101720004A0041811375F50F7DD92320EA01130783
:1017300020046FF08F91565785471309010EBD4461
:101740002944630F0C18014503C60B00930506FDE1
:1017500063EE8500936506029386F5F9138695FA84
:10176000FD556363D600B28563ECB41633769501FC
:101770006318A616850B12057D1C2E95E3160CFC2E
:101780000841AACF3AD176552AD3E8092AD532554D
:101790002AD7D6C9624CE2D18D45AED32255AAD5FF
:1017A000AED70811AAD90945AADB88099011E655D8
:1017B00097100000E78060BDA24B89AA23A8090A00
:1017C00023A6090A03254A0041811375F50F7DD927
:1017D0002320AA01A24B624C1A489307B005B148D6
:1017E000A14225439D43424E930E4004130F000235
:1017F000B54F9306200C1307B00BE14003254A00B8
:1018000041811375F50F7DD92320FA0003254A0085
:1018100041811375F50F7DD9130580042320AA009B
:101820001309010E03254A0041811375F50F7DD977
:101830002320AA0103254A0041811375F50F7DD9A4
:101840002320FA0003254A0041811375F50F7DD945
:10185000130520032320AA0003254A0041811375A4
:10186000F50F7DD91305A0042320AA0069B503A5AF
:10187000890C0C418589364691C1425693C5350085
:10188000B2C9AECB08419355850113568500A646D3
:10189000758E41811375050FBD894D8D518D2ACFF0
:1018A00056552AD1F6552ED388092AD52ED7680940
:1018B0002AD916452ADBD6CF0645AAD19145AED303
:1018C0007255AAD5AED70811AAD90D45AADBE809E9
:1018D0009011E65597100000E78020ABA24BE5B3CE
:1018E0003AD176552AD3D6C94645AAD10945AAD3B5
:1018F000A24BDED5AAD70811AAD9BEDB8809901160
:10190000E65597100000E78040A8624C1A489307FC
:10191000B005B148A14225439D43424EC1B30811D1
:10192000DE85628697F0FFFFE780A08B8A5663858D
:1019300006121A57A24B624C0548BD48A9426DC712
:101940002A55BA55014683C40600938704FD63EE09
:10195000570093E704021384F7F9938497FAFD572D
:1019600063E38400A68763E1F80CB3749601639D7A
:10197000C40A850612067D173E9671F7B9C98146DD
:10198000638B051283440500138704FD8547636E4E
:10199000570013E704029304F7F9930797FA7D576A
:1019A00063E397003E879337070193B417009327AB
:1019B0000700DD8C99EC9394460013D44440631ADD
:1019C000D4000505B386E40033A79600FD15E3892E
:1019D000E7FA5655AAC97655AACBD6CF025599A88B
:1019E0003AD176552AD3D6C95255AAD10945AAD398
:1019F000A24BDED5AAD70811AAD9BEDB880990115F
:101A0000E65597100000E7804098B54F624C1A48A1
:101A10009307B005B148A14225439D43424E930E22
:101A20004004130F0002C1B15655AAC97655AACB7E
:101A3000D6CF4645AAD10945AAD3DED5AAD788096B
:101A4000AAD9C2DBE8099011E65597100000E7809B
:101A5000C0930DCD6FE0DFC45655AAC97655AACB09
:101A6000D6CF1255AAD10945AAD3A24BDED5AAD703
:101A70008809AAD9EEDBE8099011E6559710000015
:101A8000E780A090624C19C16FE09FC11A4893078C
:101A9000B005B148A14225439D43424E1309010EB2
:101AA000930E4004130F0002B54F9306200C13074A
:101AB000B00BE14089B114C203254A00418113757E
:101AC000F50F7DD935452320AA0003254A00418121
:101AD0001375F50F7DD929452320AA00A24BB24CDE
:101AE000624C6D4D65B7914597100000E780E0A20C
:101AF0000000C14597100000E78020A200005A8531
:101B000011A02E85DE8597100000E78000A100005F
:101B1000C145328597100000E78020A00000B28503
:101B200097100000E780609F0000C1452285971054
:101B30000000E780809E0000C1455E859710000090
:101B4000E780A09D0000373500801305C5C9D54545
:101B500097100000E78080820000373500809305F1
:101B600045CC280197100000E780009C00006285AA
:101B7000A2850146DE8697100000E780C09B00002A
:101B800037350080930545CB881197100000E7801A
:101B9000A0990000411106C622C426C29710000079
:101BA000E78080DD2A84214597100000E78080DDF2
:101BB000B735008003C5853E01C993758400133491
:101BC000150089ED1DE079AA9385853E05462380A1
:101BD000C5009375840013341500EDD52145971089
:101BE0000000E780C0D9630F0416370504F00C41EC
:101BF00093E515000CC10C41370601F07D16F18DFF
:101C000037060008D18D0CC197100000E780C0D6C0
:101C10002A84214597100000E780C0D6B7350080A0
:101C200003C5653E630E05109375840013341500DB
:101C30006393051263080412370500F00841B75595
:101C400004E99385552D3335B5024D817D15B705D2
:101C500002F088C5C8454176130606CF718D13651D
:101C60007500C8C5C84113652500C8C1971000009C
:101C7000E78080D02A84214597100000E78080D03B
:101C8000373500801305F50AB735008023ACA53041
:101C9000938485311545C8C0B73500809385C50943
:101CA0008CC4C8C4373500801305150A88C811458F
:101CB000C8C8373500801305550A88CC1945C8CCEB
:101CC000373500801305450B88D00945C8D0B73596
:101CD00000809385650B8CD48D45CCD4B7350080BE
:101CE0009385D50A8CD8C8D8B73500809385B50AB6
:101CF0008CDCC8DC1385040A13066002814597104A
:101D00000000E78040ED130510102393A40C370565
:101D100004F023A4A40C214597100000E78020C6FE
:101D200005651305058097100000E78000C6137550
:101D3000840011C5214597100000E78040C401A030
:101D40009385653E05462380C50093758400133452
:101D50001500E38105EE214597100000E78020C2C1
:101D6000E31C04EC373500801305C50D9305B00264
:101D700097000000E78080600000084101A0084152
:101D80002E8685451703000067006301411106C6D2
:101D900097100000E780C0BA0000397106DE22DC2F
:101DA00026DA32889356450013071027130670026F
:101DB00063F2E6029306300663C8A60AA946635A90
:101DC000D50E7D169306D100B29613050503238028
:101DD000A60011A20146B716B7D193829675F9767F
:101DE0009383068F8566138EB6479308C0F93737FD
:101DF0000080130FE7111303D100B7E7F505938EA9
:101E0000F70FAA86333555023581B3077502B697A9
:101E10001397070149833307C7034583931F1700AF
:101E2000330717033E97460713540701B387EF01A3
:101E30003307C30083CF0700838717007A94830496
:101E40001400034404002302F702A301F703230351
:101E50009702A30287027116E3E5DEFA1306760203
:101E600093063006E3DCA6F493160501C9820567E4
:101E70001307B747B386E602C5821307C0F9338755
:101E8000E6023A95460541817916373700801307F7
:101E9000E7113A9503071500034505009307D100A4
:101EA000B297A380E7002380A7003685A946E34ABE
:101EB000D5F006057916B73600809386E61136957B
:101EC00083061500034505001307D1003297A300D0
:101ED000D7002300A7001305D1003307C500130561
:101EE0007002B307C540373500801306852E428542
:101EF000814697000000E7802001D2546254F250DE
:101F000021618280397106DE22DC26DA4AD84ED67B
:101F100052D456D25AD05ECE62CC66CA6AC86EC659
:101F2000BE893A89B68A2A8CA1C503250C0093750F
:101F30001500370A110099C1130AB002B38C35019C
:101F4000937545009DCD8145638E0A009306F0FB95
:101F50005687B287838407008507B3A496007D1750
:101F6000A6956DFBAE9CB28B83258C0099EDA9A044
:101F700003250C00938C1900130AD00293754500B9
:101F8000F9F1814B83258C0085C9832DCC0063F545
:101F9000BC03218951E183450C020D46054563834D
:101FA000C5002E859375350033859D41C5CD054609
:101FB000639DC50A814C7DA86285D2855E86D686E2
:101FC00097000000E780E013054B0DC15A85B24D24
:101FD000424DD24C624CF24B025B925A225AB25999
:101FE0004259D2546254F250216182808325CC013F
:101FF00003258C01DC45CA854E86B24D424DD24C3C
:10200000624CF24B025B925A225AB2594259D25454
:102010006254F2502161828703244C0013050003AF
:10202000034D0C022322AC00054B23006C03628598
:10203000D2855E86D68697000000E780800C59F531
:10204000A28A032A8C018324CC0133859D41130489
:1020500015007D1441C490489305000352850296F3
:102060006DD9ADB7AA8C014531A093051500058146
:1020700093DC1500032D8C01832DCC0183244C00AF
:10208000130415007D1409C803A60D016A85A685F1
:1020900002966DD9054B1DBF37051100054BE3872F
:1020A000A4F26285D2855E86D68697000000E7801E
:1020B000400509FD83A6CD006A85CA854E868296B5
:1020C00011F5014463898C0203A60D0105046A859C
:1020D000A685029665D91305F4FF39A8D444528524
:1020E000CA854E868296E31305EE014B23225C01DE
:1020F0002300AC03E1BD6685333B9501C1BD4111B1
:1021000006C622C426C24AC0370711003689B284E7
:102110002A846389E500504C084C104A0296AA852F
:10212000054591ED81CC4C4C084CDC45A6854A8692
:10213000024992442244B24041018287014502494A
:1021400092442244B24041018280411106C6970068
:102150000000E780E0C30000797106D622D426D2C1
:102160004AD04ECE52CC56CA5AC85EC618491445FB
:10217000B2892E899305F7FF054693B51500639440
:10218000C60081E521A26385051458499385F6FFB1
:1021900093B81500B3063901014635CB1303000E81
:1021A0009302000F370811004A8401A89305140018
:1021B000018E7D172E962E8421CF6307D40C8305C4
:1021C0000400E3D505FE93F5F50F63EC650263EDBE
:1021D0005502834414008347240093F4F40393F7D7
:1021E000F70383433400F605AD81B2049A07C58F27
:1021F00093F4F303C58FDD8D6388050993054400CF
:1022000045BF930524006DB79305340055B7CA85C3
:10221000638CD50683C605001307000F63E9E60249
:1022200003C7150083C725001377F70393F7F70358
:1022300083C53500F606AD8232079A075D8F93F5A8
:10224000F503D98DD58DB7061100638FD50205C270
:1022500063743603B305C90083850500930600FC4B
:1022600063CAD50EB2852E86CA8599CD21A881452F
:102270002E86CA8591C939A0CE85631D360D2E865E
:10228000CA8599C12E89B289638408044C450146E8
:10229000638E09009306F0FB4E87CA87838407008C
:1022A0008507B3A496007D1726966DFB6372B60270
:1022B000834605028D4701476383F6003687937690
:1022C0003700918D95C605466397C602814A0DA8D1
:1022D0004C4D084DDC45CA854E86B24B424BD24A26
:1022E000624AF249025992542254B250456182879F
:1022F000AE8A814531A0138615008581935A160058
:10230000032B8501832BC501404193841500FD14E7
:1023100089C803A60B015A85A28502966DD9054A84
:1023200081A037051100054A630CA40283A6CB00E7
:102330005A85CA854E86829605E58144638F9A0048
:1023400003A60B0185045A85A285029665D91385DB
:10235000F4FF29A081458DD935B75685333A55010B
:102360005285B24B424BD24A624AF24902599254C8
:102370002254B25045618280411106C69700000088
:10238000E78000A100005D7186C6A2C4A6C2CAC0D3
:102390004EDE52DC56DA5AD8B28902C41306000265
:1023A00032C60D462304C10203A6890002C802CC2E
:1023B0002AD02ED271C203A5C9006305051083A5DA
:1023C0000900131A550013050AFE1581130915009B
:1023D0001384450093040601854A37250080130BBA
:1023E000A5D7104009CA925602558325C4FFD4468A
:1023F00082966315051003A544FF2AC60385C40011
:102400002304A10283A584FF03A509012EC4D4409F
:102410008C4489CE0146639C56018E05AA95D04115
:1024200063046601014621A08C418C41054632C8F7
:102430002ECA83A6C4FF8C4089CE0146639C5601F8
:102440008E05AA95D04163046601014621A08C4106
:102450008C41054632CC2ECE83A504FF8E052E95E9
:10246000504108412C00029651E92104011A93843D
:102470000402E3180AF681A803A5490129CD83A522
:10248000090103A609000E0561150D811309150048
:1024900013044600938445004A8A104001CA9256AC
:1024A00002558325C4FFD446829629E9904003A5AE
:1024B000C4FF2C00029639E17D1A2104A104E31E19
:1024C0000AFC11A0014903A54900636BA90001465C
:1024D000636FA90035A0014903A54900E379A9FE6E
:1024E00083A50900131639002E96637BA900925626
:1024F00002550C425042D446829619C1054511A09E
:102500000145425BD25A625AF25906499644264422
:10251000B64061618280411106C697000000E780E5
:1025200020870000411106C697000000E780408622
:102530000000411106C61307101063E8E5021307F7
:102540000010130800FCB307E5008387070063D57C
:1025500007017D176DFB11A863F9E5000146BA86F6
:1025600097000000E78020FD000033B7C500B3B737
:10257000D5005D8F19E363F7C60097000000E78080
:102580002081000011CE637BB6003307C50003072E
:102590000700930700FC6355F70031A06395C50061
:1025A000014736868DC2930600FC328729A06386D8
:1025B000E5067D1701CFE37CB7FE3306E500030691
:1025C0000600E348D6FE6316B70081A801476306FC
:1025D000B7043A9583050500E3D105FA93F5F50FA5
:1025E00013B6050E93B6050F558E41FA0346150036
:1025F000834625001376F60393F6F603034535006C
:10260000F605AD8132069A06558E1375F503518D88
:102610004D8DB7051100E312B5F63735008013056F
:10262000C50D9305B00297000000E78020D500009B
:10263000797122D626D44AD24ED052CE56CC5ACA1E
:102640005EC862C666C46AC26EC0930696FF014742
:102650006363D6003687630D061E81469387350077
:10266000F19B3388B7409307180093BC1700B73726
:1026700000809388671E91421303000F93030003A9
:10268000130EF0FB930E400F7D5F930FF0080D4C7F
:10269000130B000E1309000A9309D00E314A930A56
:1026A000F00B894BB7878080138D070831A0138406
:1026B0001600A286637EC418B387D50083C70700BF
:1026C00013948701618463490402E3920CFEB3070B
:1026D000D8408D8BE9FF63F1E60AB387D5008043CC
:1026E000DC43C18FB3F7A701639C071013848600F6
:1026F000A146E364E4FE51A0B384170183C404003F
:102700006381540263848405639B74159387160068
:1027100063F4C7143384F5000304040063578E1276
:102720003DAA9384160063F9C412AE9483C40400D6
:1027300063886704639DD70593978401E187B32776
:10274000FF0033B49F00C18FBDC311AA938416004C
:1027500063F4C410AE9483C40400638F6707939D31
:1027600084016390370993D78D4193A7070013B471
:10277000040AE18FE9E3E5A036846366C40815BF67
:102780009387040793F7F70F63E37702C9A89307CA
:10279000F40093F7F70F93B7370013948401618423
:1027A00013240400E18F13B4040CE18FCDCB938785
:1027B000260063F3C70AAE97838707000544634B7F
:1027C000FE0C9387360063F9C708B384F500838451
:1027D0000400635C9E06C9A093F7040E638D270571
:1027E000BDA89307F40193F7F70F63F8470393D756
:1027F0008D41B327FF0033B49A00C18F8DCF85A0E0
:102800003684E378C4EAB386850083860600E3C293
:1028100006EA0504E31986FE25A89377E4FFC907B5
:1028200093B7170013D48D4113240400E18F13B420
:10283000040CE18F8DC79387260063FFC7003384A4
:10284000F50003040400634B8E041384170095B550
:1028500081464CC110C505A08145014419A085459C
:10286000054454C12304850023050500A304B500D5
:10287000A3050500854614C1824D124DA24C324C71
:10288000C24B524BE24A724A82591259A2543254F4
:10289000456182808945F1B78D45E1B70544894599
:1028A000C9B7757106C72E88814518419308C100C4
:1028B000A9423D4319A8B386B800135745003E9678
:1028C000A38FC606FD15637CA3003A859377F700B6
:1028D00013060003E3E157FE13067005E9BF1385F5
:1028E0000508130610086376C502B307B0406800F8
:1028F0002E9513070508373500801306C511854549
:102900008946428597F0FFFFE7800060BA40496141
:10291000828097000000E7808083000010411355FB
:10292000F641B306A600358D1346F6FF7D82AE86CE
:10293000B285368617F3FFFF670063460F0030034A
:1029400001A001A001A08280411106C697000000ED
:10295000E780200211C597000000E7802001E5BF55
:102960000545B2404101828073005010828073257A
:1029700040F1828073250030828073200530828090
:102980007330053082807320453082807325203477
:102990008280BD4663FBC606B306A04013F836002E
:1029A000B3030501630C0800AA87AE8603870600FF
:1029B0002380E70085078506E3EA77FEB3820501F9
:1029C000330806419378C8FF93F53200B3861301AC
:1029D000A9C113F6C2FF0C426357100513973200CA
:1029E000137387013307E040137E870111061842F5
:1029F000B3D56500B317C701DD8D23A0B3009103E4
:102A00001106BA85E3E5D3FE39A8AA866343C0025E
:102A100015A8635A10019685904123A0C300910325
:102A20009105E3EBD3FEB385120113763800635BA7
:102A3000C0003696038705002380E60085068505DD
:102A4000E3EAC6FE8280B306B54063F8C608B30663
:102A5000C5003D47B382C500637DC70E13F836003D
:102A6000B308004193F3C6FF630F0800B307B60035
:102A7000FD17038307001387F6FFA38F66FEFD177C
:102A8000BA86E3E8E3FEC692B308064113F6C8FF30
:102A900013F732003308C040B386C34069C393F5CF
:102AA000C2FF9C41635A080C1396320013738601CF
:102AB0003306C040137E8601F1159841B397C701D4
:102AC00033566700D18F1386C3FF23AEF3FEF11593
:102AD000B283BA87E3E3C6FE45A0BD4663FDC606E2
:102AE000B306A04013F83600B3030501630C0800D9
:102AF000AA87AE86038706002380E7008507850640
:102B0000E3EA77FEB3820501330806419378C8FFF4
:102B100093F53200B3861301D9C113F6C2FF0C42FC
:102B20006359100913973200137387013307E0408C
:102B3000137E870111061842B3D56500B317C7018C
:102B4000DD8D23A0B30091031106BA85E3E5D3FE22
:102B50008DA0AA8505A8AA866343C00695A8635DD3
:102B60000800C695F11590411387C3FF23AEC3FE3D
:102B7000F115BA83E3E9E6FE93F53800B1C9C292D4
:102B8000B385B6401386F2FF030706009387F6FF6E
:102B9000A38FE6FE7D16BE86E3E8F5FE15A8635A10
:102BA00010019685904123A0C30091039105E3EBAA
:102BB000D3FEB385120113763800635BC0003696EE
:102BC000038705002380E60085068505E3EAC6FE47
:102BD0008280BD4663F5C604B306A0408D8A3307E4
:102BE000D50099C6AA872380B7008507E3EDE7FEE5
:102BF000158E9377C6FFB306F700635EF00013F8F7
:102C0000F50FB707010193871710B307F8021CC32C
:102C10001107E36ED7FE0D8A6346C00011A8AA868D
:102C20006358C00036962380B6008506E3EDC6FEE5
:102C3000828019CA8346050003C705006398E60031
:102C40007D16850505057DF6014582803385E640C4
:102C5000828097D2FFFF9382A24B73905230828082
:022C600001A0D1
:102C6400F01300809A16008034140080C014008091
:102C74002C150080A61500808816008028290000E5
:102C8400DC0100800400000004000000E404008073
:102C9400E0030080AA0400806465737420697320D3
:102CA4006F7574206F6620626F756E647300000028
:102CB400DA0100801800000004000000F005008024
:102CC400DC0100800000000001000000C40100805D
:102CD4001B5B4400D42C008002000000D62C008032
:102CE400010000001B5B4B00E82C00800300000087
:102CF4002043617061636974794572726F72000078
:102D0400F52C00800D000000696E737566666963BA
:102D140069656E7420636170616369747900000091
:102D24000C2D0080150000000D0A1B5B33336D4F22
:102D340072616E6765437261621B5B306D2053681C
:102D4400656C6C0D0A0D0A55534147453A0D0A0945
:102D5400636F6D6D616E64205B6172675D0D0A0D5A
:102D64000A434F4D4D414E44533A0D0A096D7220AA
:102D74002020205B414444525D202020202020203C
:102D8400204D656D6F727920726561640D0A096D5D
:102D940077202020205B414444525D205B56414C07
:102DA4005D20204D656D6F72792077726974650DB1
:102DB4000A09636F6C6F72205B5247425D202020CA
:102DC400202020202020536574206C656420636FCC
:102DD4006C6F720D0A096F6E2020202020202020A5
:102DE400202020202020202020205377697463682D
:102DF400206C6564206F6E0D0A096F6666202020C2
:102E04002020202020202020202020202020537734
:102E140069746368206C6564206F66660D0A0973C3
:102E2400746174757320202020202020202020200D
:102E34002020205072696E74206C65642073746164
:102E44007475730D0A09636C65617220202020205B
:102E540020202020202020202020436C6561722027
:102E640073637265656E0D0A0968656C70202020B5
:102E74002020202020202020202020202050726983
:102E84006E742074686973206D6573736167650D72
:102E94000A0A0D0A756E737570706F72746564201A
:102EA400636F6C6F72000000E83200800000000065
:102EB400982E008011000000962E00800200000071
:102EC40000000000200000000000000002000000DC
:102ED40000000000020000000000000003000000E9
:102EE40000000000200000000000000002000000BC
:102EF40000000000020000000000000003000000C9
:102F0400696E76616C6964206164647265737300D0
:102F1400E832008000000000042F00800F00000051
:102F2400E832008000000000E83200800000000069
:102F3400E8320080000000000000000020000000D3
:102F44000000000002000000000000000200000079
:102F54000000000003000000010000002000000049
:102F64000000000002000000000000000200000059
:102F7400000000000300000000000000200000002A
:102F84000000000002000000000000000200000039
:102F94000000000003000000696E76616C69642023
:102FA400617267756D656E7473000000E8320080AD
:102FB400000000009C2F008011000000696E766103
:102FC4006C69642076616C7565000000E8320080ED
:102FD40000000000C02F00800D0000004F6E4F66FF
:102FE400664C6564207374617475733A203B2043A6
:102FF4006F6C6F723A203078E83200800000000075
:10300400E52F00800C000000F12F00800B00000071
:10301400F42C0080010000000000000020000000EB
:103024000000000002000000000000000200000098
:103034000000000003000000010000002000000068
:103044000000000002000000000000000200000078
:103054000000000003000000020000002000000047
:103064000000000002000000000000000200000058
:103074000000000003000000000000002000000029
:103084000000000002000000000000000200000038
:103094000000000003000000636C65617268656CE9
:1030A400707374617475736D726D77636F6C6F7226
:1030B4006F6E6F6666756E737570706F727465642B
:1030C40020636F6D6D616E64E83200800000000063
:1030D400B93000801300000063616C6C656420608B
:1030E4004F7074696F6E3A3A756E77726170282901
:1030F40060206F6E206120604E6F6E656020766187
:103104006C75653A20000000E83200800000000081
:103114000731008002000000307830303031303226
:103124003033303430353036303730383039313070
:10313400313131323133313431353136313731385F
:10314400313932303231323232333234323532364E
:103154003237323832393330333133323333333434
:10316400333533363337333833393430343134321A
:103174003433343434353436343734383439353000
:1031840035313532353335343535353635373538EF
:1031940035393630363136323633363436353636DE
:1031A40036373638363937303731373237333734C4
:1031B40037353736373737383739383038313832AA
:1031C4003833383438353836383738383839393090
:1031D400393139323933393439353936393739387F
:1031E400393901010101010101010101010101015B
:1031F40001010101010101010101010101010101BB
:1032040001010101010101010101010101010101AA
:10321400010101010101010101010101010101019A
:10322400010101010101010101010101010101018A
:10323400010101010101010101010101010101017A
:10324400010101010101010101010101010101016A
:10325400010101010101010101010101010101015A
:103264000101000000000000000000000000000058
:10327400000000000000000000000000000000004A
:10328400000000000000000000000000000000003A
:10329400000000000000000000000000000000002A
:1032A4000000000002020202020202020202020202
:1032B40002020202020202020202020202020202EA
:1032C40002020303030303030303030303030303CC
:1032D40003030404040404000000000000000000D0
:1032E4000000000044290080442900800000000000
:1032F4004429008044290080442900800000000003
:1033040044290080442900804429008000000000F2
:043314003E060080F1
:1033180000000000000000000000000000000000A5
:103328000000000000000000000000000000000095
:103338000000000000000000000000000000000085
:103348000000000000000000000000000000000075
:103358000000000000000000000000000000000065
:103368000000000000000000000000000000000055
:103378000000000000000000000000000000000045
:103388000000000000000000000000000000000035
:103398000000000000000000000000000000000025
:1033A8000000000000000000000000000000000015
:1033B8000000000000000000000000000000000005
:1033C80000000000000000000000000000000000F5
:0C33D800000000000200000000000000E7
:040000058000000077
:00000001FF
