:0200000480007A
:10000000B7000080678080007350403073504034E8
:1000100081400141814101428142014381430144C8
:100020008144014581450146814601478147014898
:10003000814801498149014A814A014B814B014C68
:10004000814C014D814D014E814E014F814F9731C1
:10005000000093816148732640F1B702000093824B
:10006000020063F4C2006F20A07117810000130129
:1000700061F9B712000093820280B3025602330185
:100080005140330401006F004000411106C6972023
:100090000000E780A03D2DC197200000E780E03CF4
:1000A00037350080130585D9B7350080938505D98C
:1000B00063F7A50023A005009105E3EDA5FE373504
:1000C0000080930505D937350080130545CD63754C
:1000D000B502130645006363B600B2851346F5FF0B
:1000E000B295910513F6C5FFB7350080938545CDD0
:1000F00097200000E780203C97200000E780A06761
:1001000097100000E780806100000000397106C090
:1001100016C21AC41EC672C876CA7ACC7ECE2AD03F
:100120002ED232D436D63AD83EDA42DC46DE330519
:100130000100EF00A002824092422243B243424EAD
:10014000D24E624FF24F025592552256B256425746
:10015000D2576258F258216173002030411106C60F
:1001600022C42A8497200000E7808034634A050077
:1001700022852244B2404101172300006700A32ECC
:10018000B7050080FD156D8DB145637EB500B735AF
:100190000080938545CA0A052E951C4189C72244D3
:1001A000B240410182872244B2404101172300003E
:1001B0006700832B144150412E85B685172300001C
:1001C0006700E3AD372500809306057A09462E8542
:1001D000B68517230000670083AC828082804111BE
:1001E0001305000802C663F4A500054649A813D507
:1001F000B50019ED13D5650093F5F503136505FCFE
:100200002306A10093E50508A306B1000946BDA099
:1002100013D505011DE513D5C50013D6650093F56B
:10022000F503136505FE2306A1001376F603136696
:100230000608A306C10093E505082307B1000D4693
:1002400035A813D5250113D6C50093D6650093F5BF
:10025000F503136505FF2306A1001376F603136665
:100260000608A306C10013F6F60313660608230763
:10027000C10093E50508A307B1001146AA856800EF
:100280002A96B70602F0D84241831377F70F65DF4D
:1002900093F5F50F05058CC26305C5008345050080
:1002A000DDB7014541018280797106D60841D04908
:1002B00094492AC632D236D0C8459045D4418C41A3
:1002C0002ACE32CC36CA2EC8372500809305457A0F
:1002D0006800100897200000E78040BFB2504561D9
:1002E000828005C23385C500370602F083C605004B
:1002F000584241831377F70F65DF850514C2E397F2
:10030000A5FE014582805D7186C6A2C4A6C2CAC090
:100310004EDE52DCAE8483A5050A3684B2892A8972
:1003200032C036C22EC6B9C168002AC8372500803F
:100330001305A58E2ACA26CE372500801305857F92
:100340002AD0094A52D202D408082AD805452ADA06
:10035000372500809305457A680810109720000023
:10036000E780C0B601C5230049019DA023AE8408E3
:10037000454523A0840A6375A4061385440ACE85E7
:10038000228697200000E78000130A852AC83705D7
:1003900000801305451B2ACA26CE37350080130579
:1003A000C5802AD005452AD202D40C082ED82ADAD4
:1003B000372500809305457A6808101097200000C3
:1003C000E780C0B019C1094511A019452300A90053
:1003D000625AF259064996442644B64061618280C9
:1003E000C145228597200000E78040C70000797151
:1003F00006D637350080130545822AC037050080B0
:100400001305451B2AC2373600801306468432C4C2
:100410002AC6884DCC4D37360080130686AC32C8CC
:10042000094632CA02CC8A8636D032D210089720CA
:100430000000E780A0A9B250456182802D71232E73
:100440001110232C8110232A9110232821112326F7
:100450003111232441112322511123206111DEDFA8
:10046000E2DDE6DBEAD9EED797200000E780C002A4
:10047000AA8C214597200000E780C0023735008014
:10048000930545CD03C5450B0946014C6303C500E3
:100490002E8C6311C50413F58C0011C521459720DE
:1004A0000000E780C0FFBE5D4E5DDE5C6E5CFE5B03
:1004B000032B0110832A4110032A81108329C110C4
:1004C0000329011183244111032481118320C111C7
:1004D00015618280130D410D370B02F03735008016
:1004E000930B45CD370500801305451BAADA373538
:1004F00000801309C58037250080130A457A3735F7
:10050000008013058595AAD437350080130585A88A
:10051000AACE3735008013050596AAD2372500806C
:1005200013054578AAD81D651305F5E6AACA37351F
:100530000080130525A7AAC837656C7093098556F6
:10054000373500801305C5A5AAC6373500801305C9
:10055000B5A6AAC237350080130585942AD437057D
:1005600000107D15AACC370501F07D152AD037354E
:100570000080130555A6AAC4373500801305059AD7
:100580002AD2373500801305259AAAC005651305C0
:1005900005F02ADE372500801305453E2ADC373575
:1005A00000801305C59B2ADA373500801305C59DE9
:1005B0002AD841651308F5FFED4D85449307B00532
:1005C000B148A14225439D43138E4B0A930A010D66
:1005D000930E4004354F37350080130545CAAAD61F
:1005E000373500801305C5842AD6E14F9300F00704
:1005F000130720049306100419A0A30A9C0A0325DC
:100600000B010D89E31905E803254B006181E30423
:1006100005E803240B009375F40FE380B5FF63989E
:10062000F50003455C0B01C5238A9B0AC9BF03C5BE
:100630004B0B21C1A30A0C0A238A0B0A6343B7049C
:100640006382D50CE39DE5FA03A50B0A83A5CB09CC
:1006500003467C0B2D8D934516004D8D6306052CAE
:1006600003254B0041811375F50F7DD923207B00B5
:1006700079B703455C0B25C5A30A0C0A238A0B0A2C
:10068000BDBF130530046384A50AE39AD5F703A51B
:100690000B0A0DCD7D1523A0AB0A03254B0041812C
:1006A0001375F50F7DD92320BB0103254B00418134
:1006B0001375F50F7DD92320FB0003254B004181E5
:1006C0001375F50F7DD92320DB0115BF03254B00E2
:1006D00041811375F50F7DD923207B000DB763C5CC
:1006E000B80A6387550A6398653603456C0BE311B6
:1006F000055803254B0041811375F50F7DD9232043
:100700007B00F5BD03A50B0A83A5CB0903467C0B33
:100710002D8D934516004D8D630C052403254B004C
:1007200041811375F50F7DD923207B00C9BD03A539
:100730000B0A83A5CB096370B504050523A0AB0A9A
:1007400003254B0041811375F50F7DD92320BB0193
:1007500003254B0041811375F50F7DD92320FB0044
:1007600003254B0041811375F50F7DD91305300426
:100770002320AB0069B503254B0041811375F50FAC
:100780007DD923207B00A5BD6389E5236395152CC6
:1007900083A50B0A6381051803A5CB099386F5FF92
:1007A00063FFA52C4546E378C56C3306B54041454B
:1007B000118DE365D570F28A428413054C0AAA951F
:1007C000369597200000E78040DA03A50B0A83A541
:1007D000CB097D1523A0AB0A1385F5FF23AEAB082B
:1007E00003254B0041811375F50F7DD92320BB01F3
:1007F0009307B005930E40049305300703254B0083
:1008000041811375F50F7DD92320FB002288854493
:10081000B148A14225439D43568E1306B0041307E9
:100820005007354FE14F9300F00703254B004181FE
:100830001375F50F7DD92320DB01930A010D0325E4
:100840004B0041811375F50F7DD92320BB01032592
:100850004B0041811375F50F7DD92320FB00032543
:100860004B0041811375F50F7DD92320BB00032573
:100870004B0041811375F50F7DD92320BB01032562
:100880004B0041811375F50F7DD92320FB00032513
:100890004B0041811375F50F7DD92320CB0003A5B3
:1008A0000B0A03A6CB09E36EA65EC145E3E4C55E71
:1008B0006306C502B305CC009385450A629513050E
:1008C000450A0346050083264B00C18293F6F60FC6
:1008D000FDDA05052320CB00E315B5FE03254B000B
:1008E00041811375F50F7DD92320BB0103254B00F2
:1008F00041811375F50F7DD92320FB009306100469
:1009000003254B0041811375F50F7DD92320EB00A2
:1009100013072004EDB103254B0041811375F50F3A
:100920007DD923207B00E1B903A68B09E3080632B9
:1009300003A50B09E304053283D54B097D1623ACCF
:10094000CB086300061883566C0921A07D16630A44
:10095000061633F70501E373A7309145E308D7FE88
:10096000B305F703DE959385050383D56501F9BFCC
:1009700003A50B09E30D052C83A58B09E389A52CA1
:1009800003D64B099386150023ACDB08638C051A4C
:1009900083566C0921A0FD156386051A337706017D
:1009A000E377A72A1146E308D7FE3306F7035E96DE
:1009B0001306060303566601F9BFC2D003A6CB098E
:1009C0004545E379A64C880972C8F2859710000066
:1009D000E780607A4E45E31005AC4ECA52CC4ACE51
:1009E0006E44DE4905486300042003D54B0903AA81
:1009F0000B0903596C0986576147637F454166C6F9
:100A0000AA8C2AC42A8D29A0A68C268D63F144378E
:100A10003385EC02B38DAB0013850D03B37AFD0073
:100A2000914463842A01835465010C41E39E85FC53
:100A30001105CE85228697200000E780C0D161474E
:100A40000548865771F1A24463925437A68AB24C86
:100A5000930D410D75AE13B50502138615F81336C7
:100A60001600518D71C10945E39BA5B803254B00C4
:100A700041811375F50F7DD923207B0049B623A052
:100A8000DB0A7D1523AEAB0803254B0041811375AE
:100A9000F50F7DD923205B009306100403254B003E
:100AA00041811375F50F7DD9130500022320AB009A
:100AB00003254B0041811375F50F7DD923205B0081
:100AC0003DBEE3FDA5183385F5035E95930505034B
:100AD00082D1884182CF82CD82CB82C94146E369EF
:100AE000A63E11CD01469105838605005696230248
:100AF000D6004E46850505067D15B2C975F5F28A04
:100B00004284CE4636C95E45EE457E460E572ACB18
:100B10002ECD32CF3AD1BAD1B2CFAECDAACBB6C953
:100B20002811E2856A8649A003A50B0A4146631392
:100B3000C50C03254B0041811375F50F7DD923208A
:100B40007B0075BCE375A6103305F6035E9593052F
:100B5000050382D1884182CF82CD82CB82C94146B2
:100B6000E368A63611CD01469105838605005696A9
:100B70002302D6004E46850505067D15B2C975F5DA
:100B8000F28A4284CE4636C95E45EE457E460E5711
:100B90002ACB2ECD32CF3AD1BAD1B2CFAECDAACB5D
:100BA000B6C92811E285D00997F0FFFFE780E0750C
:100BB0000345810A228885449307B005B148A142C4
:100BC00025439D43568E930A010D930E4004354FE5
:100BD0009945E14F9300F007130720049306100492
:100BE000E30FB5A04DB823AC0B0823AE0B0823A030
:100BF0000B0AA9A603A6CB096370C51803254B00F1
:100C000041811375F50F7DD92320BB0003A50B0A85
:100C100003A6CB09E367A628C145E3EDC5269306E5
:100C20001500098E918DE3EBD528EA8DF28A428D6D
:100C300013074C0AB305A7003305D700972000001F
:100C4000E780A09203A50B0ABD45E3E6A5226295C5
:100C50002302850A03A50B0A83A5CB09050523A05A
:100C6000AB0A1385150023AEAB089307B0059305B7
:100C700030071306B00403254B0041811375F50FAF
:100C80007DD96D452320AB006A888544B148A142D7
:100C900025439D43568E930E400413075007354F4E
:100CA000E14F9300F00703254B0041811375F50FC9
:100CB0007DD92320FB006E8D930A010D03254B0087
:100CC00041811375F50F7DD92320BB00ED4D032520
:100CD0004B0041811375F50F7DD92320BB010325FE
:100CE0004B0041811375F50F7DD92320FB000325AF
:100CF0004B0041811375F50F7DD92320CB0003A54F
:100D00000B0A03A6CB09E36EA618C145E3E4C51898
:100D10006306C502B305CC009385450A62951305A9
:100D2000450A0346050083264B00C18293F6F60F61
:100D3000FDDA05052320CB00E315B5FE03254B00A6
:100D400041811375F50F7DD92320BB0103254B008D
:100D500041811375F50F7DD92320FB009306100404
:100D600003254B0041811375F50F7DD945B6B24C73
:100D7000130D410DED4D4DA04146E37EC50E62952C
:100D80002302850A03A50B0A03A6CB09050523A0A8
:100D9000AB0A1305160023AEAB0803254B004181B7
:100DA0001375F50F7DD92320BB0091B8E3FB4C0DE3
:100DB00003D54D04E37A450D33C62A0183D56D046E
:100DC00013361600B306E502DE962393B60401C679
:100DD000231BAC0809A8E3F8450BB385E502DE95B3
:100DE0002392A5044A8563160A01231BAC096A8570
:100DF00011A893856D0423909500B385E402DE95D8
:100E00002392A505B24C930D410D239AAB092A8973
:100E10006E8DED4D63E04A0F82D182CF82CD82CBC1
:100E200082C94145636985E6814522854E868409EC
:100E300083060600A6952382D500CE4505068505C6
:100E40007D15AEC975F50E552AD17E45EE455E4637
:100E5000CE462ACF2ECD32CB36C991456310BA0685
:100E60003375F900E373B5003305E5025E9583152C
:100E70004504231BBC088A552CC1FA456A46DA464C
:100E8000CA444CDD10DD54D904D92322050483A5BE
:100E90000B09638D05053376F900637EB67E03D5B5
:100EA0004B093306E6025E962313A6046370B57CF5
:100EB0003305E5025E95231225051DA8E37BBA02E2
:100EC0000A55B305EA02DE95A8C17A456A46DA46B4
:100ED000CA44C8DD90DDD4D984D923A20504930582
:100EE0001A0023A8BB085289E39705FB231B2C0992
:100EF000239A2B0923AC0B0823AE0B0823A00B0A63
:100F000015CC01459306000221A0050563708504F8
:100F1000B385A90003C605001376F603E317D6FED2
:100F2000637F857203C60500E311D6FE1346F5FF05
:100F300033098600138A15002A8431A8854A01499D
:100F400002C302C182DE82DC365A31A8014937353C
:100F50000080130A45CA854A02C302C182DE82DCD0
:100F600045456371A478A818CE85228697100000A5
:100F7000E78060548809AC18228697100000E7804B
:100F8000801F4E45631905D0D6595E44EE4402DBFE
:100F900002D902D702D54545637BA9702811D285B5
:100FA0004A8697100000E780005188092C114A8674
:100FB00097100000E780201C4E45631E05CC465A62
:100FC0001945636A952813952400529508410285B6
:100FD00003254B0041811375F50F7DD9354F232033
:100FE000EB0106589307B005B148A14225439D4344
:100FF000424E930A010D930E40049306200C1307F2
:10100000B00BE14F9300F00703254B0041811375AE
:10101000F50F7DD9D9A003451400834504002205AE
:101020004D8DD6456319B52203A58B0B0C4193E575
:1010300015000CC103254B0041811375F50F7DD9B7
:10104000354F2320EB0106589307B005B148A14264
:1010500025439D43424E930A010D930E400493068F
:10106000200C1307B00BE14F9300F00703254B0052
:1010700041811375F50F7DD98DA00D462285C6459A
:1010800097100000E780206D6317051C03A58B0BEC
:101090000C41F9990CC103254B0041811375F50FE3
:1010A0007DD9354F2320EB0106589307B005B14891
:1010B000A14225439D43424E930A010D930E4004E5
:1010C0009306200C1307B00BE14F9300F0070325A4
:1010D0004B0041811375F50F7DD929457249624A4C
:1010E000D2492320AB00F1A203451400834504003C
:1010F000034634008346240022054D8D9315860057
:10110000D58DC2054D8DD2456317B5143255724940
:10111000624AD24906589307B005B148A142254317
:101120009D43424E930A010D930E4004354F9306A2
:10113000200C1307B00BB7340080E14F9300F00789
:101140008345050003264B0041821376F60F7DDAB6
:1011500005051386C4841306960E2320BB00E311F5
:10116000C5FE81AA5E49EE4415462285B645971014
:101170000000E780405E630F051615462285964500
:1011800097100000E780205D79E50547930A010D7F
:10119000354FA94763890426014503460900930595
:1011A00006FD63EFF500936506029386F5F9138655
:1011B00095FAFD556363D600B2853D466365B62456
:1011C0006646698E6311A62405091205FD142E9545
:1011D000E9F49355C500639805229355850003A64D
:1011E0008B0B9376050F720551811842BD89D58D01
:1011F0004D8D8255F98D42054D8D08C29307B0057E
:1012000003254B0041811375F50F7DD92320EB0198
:101210007249624AD2490658B148A14225439D43CA
:10122000424E930E40049306200C1307B00BE14F7F
:101230009300F00703254B0041819375F50F294575
:10124000F5D945B519462285A64597100000E780D7
:1012500080506309051426552AC94ECBE2C1764554
:10126000AAC90945AACB9655AECDAACF0809AAD1DD
:10127000D6D388019009624AD28597100000E78092
:10128000E0C47249D24906589307B005B148A1425B
:1012900025439D43424E930A010D930E4004354F62
:1012A0009306200C1307B00BE14F9300F007631473
:1012B000059E03254B0041811375F50F7DD9232031
:1012C000DB00854403254B0041811375F50F7DD963
:1012D0002320EB009306100403254B004181137576
:1012E000F50F7DD9130500022320AB00130720045E
:1012F0006FF0EFB023A00B0A23AE0B0803254B00C1
:1013000041811375F50F7DD92320BB010658930742
:10131000B005B148A14225439D43424E930A010DB9
:10132000930E4004354F9306200C1307B00BE14F8A
:101330009300F00703254B0041811375F50F7DD90C
:101340002320FB007249624AD24903254B004181A8
:101350001375F50F7DD9130580042320AB000325F9
:101360004B0041811375F50F7DD92320BB01032567
:101370004B0041811375F50F7DD92320FB00032518
:101380004B0041811375F50F7DD9130520032320F0
:10139000AB0003254B0041811375F50F7DD9130573
:1013A000A00481B303A58B0B0C418589064691C12E
:1013B000125693C53500B2C1AEC30841935585019D
:1013C00013568500F256758E41811375050FBD8940
:1013D0004D8D518D2AC726552AC94ECB88012ACD5D
:1013E0004ECF68012AD162552AD3E2C75255AAC905
:1013F0009145AECB4255AACDAECF0809AAD10D4535
:10140000AAD3E80185BD26552AC94ECBE2C1225593
:10141000AAC90945AACB9655AECDAACF0809AAD12B
:10142000BAD388019009624AD28597100000E780FC
:10143000E0A9354F7249D24906589307B005B14823
:10144000A14225439D43424E930E400491BD032586
:101450004B0041811375F50F7DD939A003254B0051
:1014600041811375F50F7DD923207B006FF04F98D4
:1014700003A60B0A4545637FA620EA8D428D8809A5
:10148000F28AF28597100000E780E0CE4E4519C140
:101490006FF06F80CE8452CC4ACEEE49638F090C38
:1014A00003A44B005E49636C3401032A0C004A8597
:1014B000D2854E8697100000E780E02959C503A425
:1014C000CB00636C340103AA8B004A85D2854E861B
:1014D00097100000E78020282DC903A44B01636CFE
:1014E000340103AA0B014A85D2854E86971000006D
:1014F000E780602639C903A4CB01636C340103AAD9
:101500008B014A85D2854E8697100000E780A02483
:101510000DCD03A44B02636C340103AA0B024A8570
:10152000D2854E8697100000E780E02219CD03A4F3
:10153000CB026364340503AA8B024A85D2854E86AA
:1015400097100000E78020210DE963FC8900330536
:101550003A01030505009305F0FBC14763C6A500EA
:101560005DA2C1476311341B3305344182D182CF60
:1015700082CD82CB82C963FFA70003254B00418146
:101580001375F50F7DD99D4323207B007249624A74
:10159000A6896DA0980919CD814533063A018306C5
:1015A0000600BA952382D500CE45050685057D1532
:1015B000AEC975F50E552ADDFE456E46DE464E4433
:1015C0002EDB32D936D722D52AD103A50B0A2ECF4E
:1015D00032CD36CB3306850022C96364A60C72492E
:1015E000624A63E9C70AA68962951305450A440958
:1015F000A685228697100000E780E0EB03A50B0A82
:10160000229523A0AB0A23AEAB08A6DCA2DEA81865
:10161000AAC15655AAC3E2C7CAC90545AACB82CDFD
:101620008C01AED1AAD3E8019009D28597100000B1
:10163000E780C0899D4319C16FE0FFE56A886E8D20
:10164000ED4D85449307B005B148A1422543568E20
:10165000930A010D930E4004354F6FE01FF9A285E8
:1016600097100000E780809F0000914597100000D0
:10167000E780C09E0000C14597100000E780009EF3
:101680000000668511A02E85D28597100000E780A6
:10169000E09C0000C145328597100000E780009C67
:1016A0000000B28597100000E780409B0000C14514
:1016B0004A8597100000E780609A00003725008077
:1016C0001305C57BD54597000000E780407F0000EB
:1016D000372500809305457EA81897100000E78005
:1016E000C0980000C145228597100000E780009750
:1016F0000000372500809305457D8809971000007C
:10170000E780A09600005285A2850146CE869710FC
:101710000000E78060960000411106C622C426C280
:1017200097100000E78040D72A84214597100000D9
:10173000E78040D7B735008003C545D901C9937507
:1017400084001334150089ED1DE059A2938545D915
:1017500005462380C5009375840013341500EDD52C
:10176000214597100000E78080D3630304163705F6
:1017700004F00C4193E515000CC10C41370601F053
:101780007D16F18D37060008D18D0CC19710000031
:10179000E78080D02A84214597100000E78080D020
:1017A000B735008003C525D9630205109375840001
:1017B0001334150063970510630C0410370500F00F
:1017C0000841B75504E99385552D3335B5024D8150
:1017D0007D15B70502F088C5C8454176130606CFCA
:1017E000718D13657500C8C5C84113652500C8C152
:1017F00097100000E78040CA2A8421459710000016
:10180000E78040CA373500801305B5A6B73500809C
:1018100023AAA5CC938445CD1545C8C0B735008013
:101820009385C5A58CC4C8C437350080130515A69B
:1018300088C81145C8C837350080130555A688CC1F
:101840001945C8CC37350080130505A788D0094550
:10185000C8D037350080130525A788D40D45C8D4D6
:101860001385040913066002814597100000E78084
:1018700080E813051010239BA40A370504F023AC5D
:10188000A40A214597100000E78060C10565130593
:10189000058097100000E78040C11375840011C5D2
:1018A000214597100000E78080BF01A0938525D9CE
:1018B00005462380C5009375840013341500E38D1D
:1018C00005EE214597100000E78060BDE31804EEA7
:1018D00037350080130585A99305B00297000000F5
:1018E000E780E05D0000084101A008411703000007
:1018F00067006301411106C697100000E78040B6FB
:101900000000797106D622D42E881356450093061E
:101910001027930570026372D602130630066346E1
:10192000A60A29466358C50EFD15130611002E960A
:10193000130505032300A60001A281453716B7D180
:101940001303967579769303068F0566130EB647D3
:101950009308C0F937360080130FA6AD930211002B
:10196000B7E6F505938EF60F2A8733356502358184
:10197000B3077502BA9793960701C982B386C60367
:10198000C58213961600B3861603BE96C606C1829C
:101990007A96B387B200834F060003061600FA96C4
:1019A0000384160083C606002382C702A381F703BF
:1019B00023838702A382D702F115E3E7EEFA93852A
:1019C000750213063006E35EA6F41316050149827C
:1019D00085669386B6473306D60245829306C0F9DC
:1019E000B306D602369546054181F915B736008013
:1019F0009386A6AD369583061500034505001307AB
:101A000011002E97A300D7002300A7003285294696
:101A1000E34CC5F00605F915373600801306A6AD70
:101A20003295030615000345050093061100AE9696
:101A3000A380C6002380A60013051100B306B500DD
:101A4000130570023307B54037350080930545CA4A
:101A50004285014697000000E78000012254B25001
:101A600045618280397106DE22DC26DA4AD84ED6FC
:101A700052D456D25AD05ECE62CC66CA6AC86EC6FE
:101A8000AA840841BA893689328AAE8B93751500CB
:101A9000B70A110099C1930AB00213764500338446
:101AA000350109E6814B8C4485E591A88145630E9B
:101AB0000A001306F0FBD2865E878307070005073E
:101AC000B327F600FD16BE95EDFA2E948C4485C919
:101AD00003ADC4006375A403218941E183C50402F9
:101AE0000D4605456383C5002E8593753500330586
:101AF0008D40CDC90546639AC50A814C65A82685E7
:101B0000D6855E86D28697000000E780A013054B3D
:101B10000DC15A85B24D424DD24C624CF24B025B24
:101B2000925A225AB2594259D2546254F250216107
:101B30008280CC4C884CDC45CA854E86B24D424DE5
:101B4000D24C624CF24B025B925A225AB259425921
:101B5000D2546254F2502161828703AC44001305D1
:101B6000000383CC0402C8C0054B23806403268590
:101B7000D6855E86D28697000000E780A00C51F9DA
:101B800003AA840183AAC40133058D401304150000
:101B90007D1449C403A60A019305000352850296E9
:101BA00065D985BFAA8C014531A093051500058133
:101BB00093DC150003AC840103ADC40183AD440084
:101BC000130415007D1409C803260D016285EE85F6
:101BD00002966DD9054B35BF37051100054BE38AD9
:101BE000ADF22685D6855E86D28697000000E78016
:101BF000600505F18326CD006285CA854E868296F2
:101C000009F90144638A8C0203260D0105046285EB
:101C1000EE85029665D91305F4FF05A083A6CA00D8
:101C20005285CA854E868296E31505EE014B23A2A6
:101C3000840123809403F1BD6685333B9501D1BDBA
:101C4000411106C622C426C24AC037071100368990
:101C5000B2842A846389E500504C084C104A0296ED
:101C6000AA85054591ED81CC4C4C084CDC45A685F8
:101C70004A86024992442244B2404101828701458A
:101C8000024992442244B24041018280411106C679
:101C900097000000E78040C60000797106D622D484
:101CA00026D24AD04ECE52CC56CA5AC85EC6184921
:101CB0001445B2892E899305F7FF054693B51500A3
:101CC0006394C60081E521A2638505145849938574
:101CD000F6FF93B81500B3063901014635CB13035F
:101CE000000E9302000F370811004A8401A89305E3
:101CF0001400018E7D172E962E8421CF6307D40CFD
:101D000083050400E3D505FE93F5F50F63EC65024A
:101D100063ED5502834414008347240093F4F403D5
:101D200093F7F70383433400F605AD81B2049A07B5
:101D3000C58F93F4F303C58FDD8D63880509930583
:101D4000440045BF930524006DB79305340055B793
:101D5000CA85638CD50683C605001307000F63E9A7
:101D6000E60203C7150083C725001377F70393F72F
:101D7000F70383C53500F606AD8232079A075D8FFB
:101D800093F5F503D98DD58DB7061100638FD50274
:101D900005C263743603B305C90083850500930645
:101DA00000FC63CAD50EB2852E86CA8599CD21A8BE
:101DB00081452E86CA8591C939A0CE85631D360D11
:101DC0002E86CA8599C12E89B289638408044C4540
:101DD0000146638E09009306F0FB4E87CA87838411
:101DE00007008507B3A496007D1726966DFB6372E6
:101DF000B602834605028D4701476383F6003687A6
:101E000093763700918D95C605466397C602814A41
:101E10000DA84C4D084DDC45CA854E86B24B424B51
:101E2000D24A624AF249025992542254B250456150
:101E30008287AE8A814531A0138615008581935A29
:101E40001600032B8501832BC501404193841500A7
:101E5000FD1489C803A60B015A85A28502966DD987
:101E6000054A81A037051100054A630CA40283A628
:101E7000CB005A85CA854E86829605E58144638FDC
:101E80009A0003A60B0185045A85A285029665D99E
:101E90001385F4FF29A081458DD935B75685333A8E
:101EA00055015285B24B424BD24A624AF24902591D
:101EB00092542254B25045618280411106C6970067
:101EC0000000E78060A300005D7186C6A2C4A6C2C0
:101ED000CAC04EDE52DC56DA5AD8B28902C41306A2
:101EE000000232C60D462304C10203A6890002C8BF
:101EF00002CC2AD02ED271C203A5C90063050510F9
:101F000083A50900131A550013050AFE158113094C
:101F100015001384450093040601854A3725008087
:101F2000130B658E104009CA925602558325C4FFD3
:101F3000D44682966315051003A544FF2AC603857F
:101F4000C4002304A10283A584FF03A509012EC4B4
:101F5000D4408C4489CE0146639C56018E05AA95D7
:101F6000D04163046601014621A08C418C410546A5
:101F700032C82ECA83A6C4FF8C4089CE0146639C1A
:101F800056018E05AA95D04163046601014621A041
:101F90008C418C41054632CC2ECE83A504FF8E05A4
:101FA0002E95504108412C00029651E92104011A56
:101FB00093840402E3180AF681A803A5490129CDF8
:101FC00083A5090103A609000E0561150D811309FA
:101FD000150013044600938445004A8A104001CA44
:101FE000925602558325C4FFD446829629E9904033
:101FF00003A5C4FF2C00029639E17D1A2104A10437
:10200000E31E0AFC11A0014903A54900636BA90066
:102010000146636FA90035A0014903A54900E37992
:10202000A9FE83A50900131639002E96637BA9002B
:10203000925602550C425042D446829619C105452B
:1020400011A00145425BD25A625AF25906499644A0
:102050002644B64061618280411106C697000000A7
:10206000E78080890000411106C697000000E780E4
:10207000A0880000411106C61307101063E8E502AE
:1020800013070010130800FCB307E500838707005F
:1020900063D507017D176DFB11A863F9E5000146C3
:1020A000BA8697000000E78020FD000033B7C50026
:1020B000B3B7D5005D8F19E363F7C6009700000042
:1020C000E7808083000011CE637BB6003307C50034
:1020D00003070700930700FC6355F70031A06395E1
:1020E000C500014736868DC2930600FC328729A0C1
:1020F0006386E5067D1701CFE37CB7FE3306E50076
:1021000003060600E348D6FE6316B70081A8014720
:102110006306B7043A9583050500E3D105FA93F504
:10212000F50F13B6050E93B6050F558E41FA03460B
:102130001500834625001376F60393F6F603034550
:102140003500F605AD8132069A06558E1375F503F6
:10215000518D4D8DB7051100E312B5F6373500806E
:10216000130585A99305B00297000000E78020D5EC
:102170000000797122D626D44AD24ED052CE56CC07
:102180005ACA5EC862C666C46AC26EC0930696FF2B
:1021900001476363D6003687630D061E8146938729
:1021A0003500F19B3388B7409307180093BC1700A4
:1021B000B7370080938827BA91421303000F930327
:1021C0000003130EF0FB930E400F7D5F930FF0089A
:1021D0000D4C130B000E1309000A9309D00E314A5F
:1021E000930AF00B894BB7878080138D070831A0C5
:1021F00013841600A286637EC418B387D50083C7F4
:10220000070013948701618463490402E3920CFE82
:10221000B307D8408D8BE9FF63F1E60AB387D50099
:102220008043DC43C18FB3F7A701639C071013847D
:102230008600A146E364E4FE51A0B384170183C481
:1022400004006381540263848405639B741593873F
:10225000160063F4C7143384F500030404006357C5
:102260008E123DAA9384160063F9C412AE9483C4FF
:10227000040063886704639DD70593978401E18711
:10228000B327FF0033B49F00C18FBDC311AA93844D
:10229000160063F4C410AE9483C40400638F670710
:1022A000939D84016390370993D78D4193A70700CD
:1022B00013B4040AE18FE9E3E5A036846366C40839
:1022C00015BF9387040793F7F70F63E37702C9A855
:1022D0009307F40093F7F70F93B737001394840133
:1022E000618413240400E18F13B4040CE18FCDCB7F
:1022F0009387260063F3C70AAE97838707000544D8
:10230000634BFE0C9387360063F9C708B384F5006E
:1023100083840400635C9E06C9A093F7040E638D5A
:102320002705BDA89307F40193F7F70F63F8470358
:1023300093D78D41B327FF0033B49A00C18F8DCF5F
:1023400085A03684E378C4EAB386850083860600D8
:10235000E3C206EA0504E31986FE25A89377E4FFA5
:10236000C90793B7170013D48D4113240400E18FDC
:1023700013B4040CE18F8DC79387260063FFC70059
:102380003384F50003040400634B8E0413841700A8
:1023900095B581464CC110C505A08145014419A0E1
:1023A0008545054454C12304850023050500A30485
:1023B000B500A3050500854614C1824D124DA24CFF
:1023C000324CC24B524BE24A724A82591259A254C1
:1023D0003254456182808945F1B78D45E1B70544A6
:1023E0008945C9B7757106C701461C411308C1006C
:1023F000A948BD4219A83303C80093D746003A95AF
:10240000A30FA3067D1663FCD200BE8613F5F7006A
:1024100013070003E36115FF13077005E9BF1305F8
:102420000608930610086376D5023307C04068009B
:1024300032959306050837350080930785AD094628
:102440002E85BE8597F0FFFFE7800062BA404961A4
:10245000828097000000E780A08300000F00300317
:1024600001A001A001A08280411106C697000000D2
:10247000E780200211C597000000E7802001E5BF3A
:102480000545B2404101828073005010828073255F
:1024900040F1828073250030828073200530828075
:1024A000733005308280732045308280732520345C
:1024B0008280BD4663FBC606B306A04013F8360013
:1024C000B3030501630C0800AA87AE8603870600E4
:1024D0002380E70085078506E3EA77FEB3820501DE
:1024E000330806419378C8FF93F53200B386130191
:1024F000A9C113F6C2FF0C426357100513973200AF
:10250000137387013307E040137E870111061842D9
:10251000B3D56500B317C701DD8D23A0B3009103C8
:102520001106BA85E3E5D3FE39A8AA866343C00243
:1025300015A8635A10019685904123A0C30091030A
:102540009105E3EBD3FEB385120113763800635B8C
:10255000C0003696038705002380E60085068505C2
:10256000E3EAC6FE8280B306B54063F8C608B30648
:10257000C5003D47B382C500637DC70E13F8360022
:10258000B308004193F3C6FF630F0800B307B6001A
:10259000FD17038307001387F6FFA38F66FEFD1761
:1025A000BA86E3E8E3FEC692B308064113F6C8FF15
:1025B00013F732003308C040B386C34069C393F5B4
:1025C000C2FF9C41635A080C1396320013738601B4
:1025D0003306C040137E8601F1159841B397C701B9
:1025E00033566700D18F1386C3FF23AEF3FEF11578
:1025F000B283BA87E3E3C6FE45A0BD4663FDC606C7
:10260000B306A04013F83600B3030501630C0800BD
:10261000AA87AE86038706002380E7008507850624
:10262000E3EA77FEB3820501330806419378C8FFD9
:1026300093F53200B3861301D9C113F6C2FF0C42E1
:102640006359100913973200137387013307E04071
:10265000137E870111061842B3D56500B317C70171
:10266000DD8D23A0B30091031106BA85E3E5D3FE07
:102670008DA0AA8505A8AA866343C00695A8635DB8
:102680000800C695F11590411387C3FF23AEC3FE22
:10269000F115BA83E3E9E6FE93F53800B1C9C292B9
:1026A000B385B6401386F2FF030706009387F6FF53
:1026B000A38FE6FE7D16BE86E3E8F5FE15A8635AF5
:1026C00010019685904123A0C30091039105E3EB8F
:1026D000D3FEB385120113763800635BC0003696D3
:1026E000038705002380E60085068505E3EAC6FE2C
:1026F0008280BD4663F5C604B306A0408D8A3307C9
:10270000D50099C6AA872380B7008507E3EDE7FEC9
:10271000158E9377C6FFB306F700635EF00013F8DB
:10272000F50FB707010193871710B307F8021CC311
:102730001107E36ED7FE0D8A6346C00011A8AA8672
:102740006358C00036962380B6008506E3EDC6FECA
:10275000828019CA8346050003C705006398E60016
:102760007D16850505057DF6014582803385E640A9
:10277000828097E2FFFF9382A29973905230828009
:0227800001A0B6
:10278400D00F008056120080161000807A1000804E
:10279400E8100080641100804412008028290000A1
:1027A400DC0100800400000004000000E20200805C
:1027B400DE010080A80200806465737420697320C0
:1027C4006F7574206F6620626F756E64730000000D
:1027D400DA0100801800000004000000EE0300800D
:1027E400DC0100800000000001000000C401008042
:1027F4001B5B4400F427008002000000F6270080E1
:10280400010000001B5B4B0008280080030000004F
:102814002043617061636974794572726F7200005C
:10282400152800800D000000696E73756666696383
:1028340069656E7420636170616369747900000076
:102844002C280080150000000D0A1B5B33336D4FEC
:1028540072616E6765437261621B5B306D20536801
:10286400656C6C0D0A0D0A55534147453A0D0A092A
:10287400636F6D6D616E64205B6172675D0D0A0D3F
:102884000A434F4D4D414E44533A0D0A096F6E2091
:1028940020202020202020537769746368206C65F1
:1028A40064206F6E0D0A09636F6C6F722020202004
:1028B40020536574206C656420636F6C6F720D0A1D
:1028C400096F6666202020202020205377697463D6
:1028D40068206C6564206F66660D0A097374617400
:1028E4007573202020205072696E74206C656420FA
:1028F4007374617475730D0A09636C6561722020C9
:10290400202020436C6561722073637265656E0DCF
:102914000A0968656C702020202020205072696E9E
:10292400742074686973206D6573736167650D0A3B
:102934000A0D0A756E737570706F72746564206326
:102944006F6C6F72A42C0080000000003729008097
:102954001100000035290080020000000000000082
:102964002000000000000000020000000000000041
:10297400020000000000000003000000000000004E
:102984002000000000000000020000000000000021
:102994000200000000000000030000004F6E4F66BC
:1029A400664C6564207374617475733A203B2043EC
:1029B4006F6C6F723A203078A42C00800000000005
:1029C400A52900800C000000B12900800B00000044
:1029D4001428008001000000000000002000000016
:1029E40000000000020000000000000002000000DF
:1029F40000000000030000000100000020000000AF
:102A040000000000020000000000000002000000BE
:102A1400000000000300000002000000200000008D
:102A2400000000000200000000000000020000009E
:102A3400000000000300000000000000200000006F
:102A4400000000000200000000000000020000007E
:102A54000000000003000000636C65617268656C2F
:102A640070737461747573636F6C6F726F6E6F667D
:102A740066756E737570706F7274656420636F6DC4
:102A84006D616E64A42C008000000000752A008033
:102A94001300000063616C6C656420604F7074699E
:102AA4006F6E3A3A756E77726170282960206F6E86
:102AB400206120604E6F6E65602076616C75653AAA
:102AC40020000000A42C008000000000C32A008025
:102AD400020000003078303030313032303330345E
:102AE40030353036303730383039313031313132B9
:102AF400313331343135313631373138313932309F
:102B0400323132323233323432353236323732388D
:102B1400323933303331333233333334333533367C
:102B24003337333833393430343134323433343462
:102B34003435343634373438343935303531353248
:102B4400353335343535353635373538353936302E
:102B5400363136323633363436353636363736381D
:102B6400363937303731373237333734373537360C
:102B740037373738373938303831383238333834F2
:102B840038353836383738383839393039313932D8
:102B94003933393439353936393739383939010126
:102BA4000101010101010101010101010101010111
:102BB4000101010101010101010101010101010101
:102BC40001010101010101010101010101010101F1
:102BD40001010101010101010101010101010101E1
:102BE40001010101010101010101010101010101D1
:102BF40001010101010101010101010101010101C1
:102C040001010101010101010101010101010101B0
:102C140001010101010101010101010101010000A2
:102C240000000000000000000000000000000000A0
:102C34000000000000000000000000000000000090
:102C44000000000000000000000000000000000080
:102C54000000000000000000000000000000000070
:102C64000202020202020202020202020202020240
:102C7400020202020202020202020202020203032E
:102C8400030303030303030303030303030304040E
:102C94000404040000000000000000000000000024
:102CA4006424008064240080000000006424008008
:102CB40064240080642400800000000064240080F8
:102CC4006424008064240080000000003C04008030
:102CD40000000000000000000000000000000000F0
:102CE40000000000000000000000000000000000E0
:102CF40000000000000000000000000000000000D0
:102D040000000000000000000000000000000000BF
:102D140000000000000000000000000000000000AF
:102D2400000000000000000000000000000000009F
:102D3400000000000000000000000000000000008F
:102D4400000000000000000000000000000000007F
:102D5400000000000000000000000000000000006F
:102D6400000000000000000000000000000000005F
:102D7400000000000000000000000000000000004F
:0C2D840000000000020000000000000041
:040000058000000077
:00000001FF
